:020000040000FA
:040000008A11112828
:10000800FE00030EF0000408F1000A08F200831253
:1000180003137F08F3008A11F12D8A111328F601C2
:10002800F701F801F90183132030840046308A1162
:100038009D268A11CF30FD000230FE00B430FF004B
:10004800A03084008A112B268A116330FD00063007
:10005800FE009530FF005B3084008A112B26830157
:100068008A11A028831203139F1C8F2897287608CB
:100078000A3A031D55280A30C6000030C700210877
:10008800C901C9072008C801C8078A110C228A11AA
:10009800831203134608CD004D08A900A001A10151
:1000A8005E281E08CD00CE014D08A0070318A10A3E
:1000B8004E08A107A9309F00A801A80A972876082A
:1000C8000A3A031D7E280A30C6000030C7002308FC
:1000D800C901C9072208C801C8078A110C228A1158
:1000E800831203134608CD004D08AF00A201A301F7
:1000F800F6018B281E08CD00CE014D08A207031873
:10010800A30A4E08A3070130CD004D08F607813039
:100118009F00A80197282808003A03193B28013AAC
:100128000319632897280630CD00CD0B99280000C5
:10013800831203139F14080083120313DA01033098
:100148005A020318EE286400831203135A088A110E
:1001580012238A11831203135A088A1194258A11CB
:10016800831203135A088A1140258A118312031334
:100178005A088A1116268A11831203135A088A11FB
:100188007F268A11831203135A088A1124248A119C
:10019800831203135A088A11E3228A118312031364
:1001A8005A088A1190238A11831203135A088A1154
:1001B800C6258A11831203135A088A11B7238A1194
:1001C800013083120313D9005908DA0703305A02A1
:1001D800031CA7288B1764008A114C228A118A11E4
:1001E80023258A118A1136208A118A11A5268A1197
:1001F800EF288A118B268A11831603131608831297
:100208000313CB004B08CC0004308316031396006D
:100218000B0883120313CB004B08CD0088308B00EA
:1002280083160313150883120313CB004B08CE0063
:1002380004308316031395008312031705088312ED
:100248000313CB004B08CF00173083120317850028
:1002580083160313010883120313CB004B08D00045
:100268000A308316031381006400630083120313AA
:100278004C08831603139600831203134D088B0052
:100288004E08831603139500831203134F08831235
:100298000317850083120313500883160313810084
:1002A800831203132B140800583083120313D7004A
:1002B8005708CA00CB01CB0A3B308A11E9248A11BE
:1002C8000530831203135802031C0800640005302C
:1002D80083120313D7005708CF003C308A114726F2
:1002E8008A11831203132C1C9729BC08031D582953
:1002F8003E08013A031D58293D08D7005708BB009E
:100308008A1156268A118A11AE258A11831203137F
:100318002C10B201AA018A1180228A1103308A1195
:10032800DC238A115829831203133A083C06031D5B
:1003380058293B083D06031D58293E08803A031DED
:10034800582936308A11DE258A1183120313B20127
:10035800AA010130A4000030A50058298312031314
:10036800D2006400553083120313D0005008CA002D
:10037800CB01CB0A35308A11E9248A118312031381
:1003880055081F390D3A0319CE2955081F39013A66
:10039800031DB52936308A11DE258A1153308312A0
:1003A8000313D0005008CA00CB01CB0A3B308A1196
:1003B800E9248A11543083120313D0005008CA006C
:1003C800CB01CB0A3A308A11E9248A113B308A11D1
:1003D800DE258A11543083120313D0005008CA0056
:1003E800CB01CB0A3A308A11E9248A11831203130C
:1003F8005208D0005008C8004F08D1005108C90061
:100408003F308A1106258A1135308A11DE25080009
:1004180083120313CB01CC01470846040319452A6C
:10042800CA01CA0AC71B242A01300310C60DC70D0A
:10043800FF3E031D192A0130F4007408CA07162A62
:1004480001300310CB0DCC0DFF3E031D252A4708B4
:100458004902031D312A46084802031C3A2A460865
:10046800C8024708031CC903C9024B140130031012
:10047800C70CC60CFF3E031D3B2A0130CA02031DF0
:10048800242A4C08C701C7074B08C601C60708003D
:1004980083120313331C572A33108A1189248A11B3
:1004A8008A1168238A1183120313351C5F2A3510B9
:1004B8008A1137268A118312031325082404031D81
:1004C800061D6B2AA401A5018A11FD208A11831239
:1004D80003132B1C08002B10D801033058020318F3
:1004E800080058088A11E3228A1101308312031385
:1004F800D7005708D807712A0530831203132A0238
:100508000318AD2A3B08D6005608C1003A08D600A1
:100518005608C200C3012F08D6005608C40029088F
:10052800D6005608C5000530D6005608CF00413021
:100538008A11B2218A11643083120313D600560837
:10054800B2000130D6005608AA0701308A110024EB
:100558000800013083120313A4000030A50008002E
:100568004734463480340F34D33491340534083456
:1005780004340034003406340034213463349134B4
:10058800CA348334023402343B34343407343F34BD
:10059800083416346C3403344034913487346B3463
:1005A800FB3456341634E9342A3400341F344134C9
:1005B80000345934BF343F3481343534093483121C
:1005C8000313CF00072B30308A11DE258A11A030A3
:1005D80083120313CD004D08C8002E30CE004E08FC
:1005E800C90000308A1106258A115B308312031373
:1005F800CD004D08C8000830CE004E08C9003E3076
:100608008A1106250800831203134F08013A0319BB
:10061800112B033A0319E72A112B0800F500352B93
:10062800063083160313810071308F00093083125E
:10063800031785008316031396016330831203138F
:1006480081008B16FB30F40074088B058C018D013A
:10065800831603138C018D01080083120313B30161
:1006680008007508003A0319142B013A0319312BB5
:100678003D2B080083120313C600831603178C183A
:10068800412B831203134608831203178D00740845
:100698008C003F30F5007508831603178C0583120C
:1006A800031303108B1B03148B13831603170C15EA
:1006B80055308D00AA308D008C140C118312031351
:1006C800031C08008B170800771C7B2B0130F400F3
:1006D800740883120313B00706303002031C7B2B07
:1006E8007710B001781C7A2B34147B2B3614F71C46
:1006F8000800013083120313A6070318A70A003065
:10070800A70700302702C93003192602031C080076
:10071800A601A7013514080083120313D700A92BDB
:10072800B201B101AA01A401AC01080036308A1156
:10073800DE258A1133308A11DE258A1134308A1178
:10074800DE258A118A1180220800831203135708B4
:10075800003A0319B62B013A0319942B033A0319EB
:100768009A2BB62B0800F500D02B81308312031387
:100778009F00831603139F01080083120313A80127
:10078800A901AF0108000630F400F40BC92B0000E2
:10079800831203139F1408007508003A0319B92B34
:1007A800013A0319C12B033A0319C72BDB2B0800A5
:1007B80083120313CB00CC014B084C02031808002A
:1007C8006400831203138713C830F4000030F50067
:1007D8008A1147248A11831203138717C830F4003B
:1007E8000030F5008A1147248A110130831203135F
:1007F800CA004A08CC07E02B83120313CB00CC01B4
:100808004B084C0203180800640083120313871373
:100818000530F4000030F5008A1147248A1183124C
:10082800031387170530F4000030F5008A114724B8
:100838008A11013083120313CA004A08CC07042C1A
:10084800F5003B2C831603130716D730F400740801
:1008580087058312031394129301940183160313DB
:100868009101403094008312031394160800750810
:10087800003A0319262C013A0319462C033A0319A6
:10088800462C462C080083120313C801C9017508B9
:100898004902031D512C740848020318080064001B
:1008A800033083120313C7009730C600C60B5A2CB7
:1008B800C70B5A2C5F2C013083120313C807031887
:1008C800C90A0030C9074B2C83120313CB00CC0193
:1008D80048084C02031808006400831203134C08EC
:1008E8004707C9004908840083130008CA004A085A
:1008F800F4004C084B078A113E238A1101308312F9
:100908000313C9004908CC076C2C8312031332085F
:100918000319982C0130B202B208031D982C8A11D1
:1009280080228A11831203138312031331080319D7
:1009380008000130B102B108031D08002C10AA01FB
:100948008A11802283120313080083120313C8003C
:10095800C90174084902031808008C11FF3093007C
:10096800831203138C19BA2C0000B42C1308C60088
:1009780049084807C70047088400460883138000D1
:100988000130C6004608C907AD2C83120313CA00FC
:10099800CB0147084B0203180800640083120313B5
:1009A8004B084A078A1179258A1183120313C80054
:1009B8004B084607C900490884004808831380008B
:1009C8000130C8004808CB07CD2C83120313CD0093
:1009D80085124D083F39C038CC004C08CE00F401D0
:1009E800F40A4E308A115D258A11831203134B08CD
:1009F800CC004C08F4004A088A11A9248312031376
:100A08008516080083120313CB0085124B083F3963
:100A18004038CA004A08CC00F401F40A4C308A1164
:100A28005D258A11831203134908CA004A08F40095
:100A380048088A115D258312031385160800F901F9
:100A480083120313061D791479080139F400780814
:100A5800013974060319382D7810791C342D78144F
:100A680083120313B0017714781C3C2DF714080087
:100A7800A601A701F7100800F500572D83160313E8
:100A880085015730F40074088705DF30F4007408D6
:100A98008316031788052030F400740883120313A3
:100AA8008505871708007508003A0319422D5C2D43
:100AB800080083120313C600C7017408470203180D
:100AC80008008C1147084607F50075088400831351
:100AD80000089300831203138C19742D00006E2DE7
:100AE8000130F5007508C707612DF500640083160D
:100AF80003178C187A2D7508831203178D003F3061
:100B0800F4007408831603178C050C1403100C18D2
:100B18000314003003180130831203170C0808006F
:100B2800F500A82D0730F400740883160313860413
:100B38000716F830F4007408831603178905073080
:100B480083160313950008007508003A0319962DBB
:100B5800AD2D0800831203133B08D6005608C100C8
:100B68003A08D6005608C2008130D6005608C3009D
:100B7800C401C5010530D6005608CF0041308A119E
:100B8800B221080083120313D000D32D0130900046
:100B980008008A1164268A118A11722608008312B5
:100BA80003135008003A0319CA2D013A0319CD2D31
:100BB800DD2D080083120313C900851249083F3947
:100BC8008038C8004808CA00F401F40A4A308A117B
:100BD8005D2583120313851608000B1DF72D0B11D5
:100BE8008A11AC268A11730883120313FF00720856
:100BF8008A0071088400700E8300FE0E7E0E0900C4
:100C0800C53083120313CF004F08B7005C30CF0004
:100C18004F08B800B901BA01BB018A1156268A11DA
:100C28000000142EF400212EF701F801F9018312B7
:100C38000313B601B401B50108007408013A031999
:100C4800182E262E08007E088A007F088200272694
:100C58008A118000840A04087D0603190034FF0AFB
:100C68000319FE0A2B2E831203130E080F06CF005A
:100C78004F08BA00B901B90A8A1156268A110330F9
:100C88008A11DC23080083120313D2005208D00013
:100C98005008CA004F08D1005108CB003F308A11D4
:100CA800E9240800373083120313CD004D08C7002C
:100CB8000530CE004E08C80000308A1168240800AC
:100CC800373083120313CC004C08C6000530CD0022
:100CD8004D08C70000308A11C92408008312031385
:100CE8003708C53A031D7C2E38085C3A03190800FA
:100CF8008A1104260800F400852E8312031387172F
:100D080008007408023A0319812E8A2E08008312FB
:100D18000313851238308A11DE25831203138516D2
:100D2800080003340F341E34273450348134CB3454
:100D3800C23464008001840A0406031900340406DE
:100D48009E2E83120313061808008A1158210800E2
:0C0D580083120313331463308100080081
:084000000E00040007000C0093
:04400E002CEFFFFE96
:00000001FF
