:020000040000FA
:1000000080311428FF3FFF3F803120007F08F0003F
:100010000B1D0D280B118C316424270016191611A5
:1000200070082000FF00090080311628FC016930AB
:1000300084000030850007308C3176248031A03078
:100040008400003085002A308C3176248031843061
:1000500084008C308500CA3086000030870008306C
:100060008C3170248031C630840087308500203088
:100070008600013087002F308C31702420008631BB
:10008000842E2000D201D301D401D501D9017F29CA
:1000900020008D1659080A3A031DBB280A30F100CA
:1000A0000030F2005308F401F4075208F301F3079B
:1000B00087315E27803171082000D0005008E900A8
:1000C0000030B3008030B4004430B5001230A300DB
:1000D0008330A4003F30A5006908D000D101D0359D
:1000E000D10DD035D10D5008F9005108FA008E31EC
:1000F000D826803179082000A6007A08A7007B085E
:10010000A80083314123803120002308B600240851
:10011000B7002508B8008331F5238031200033086B
:10012000D6003408D7003508D8000030A30030309E
:10013000A4004130A5005608A6005708A70058089B
:10014000A800833141238031200023082100A00032
:10015000200024082100A100200025082100A20081
:100160002000D201D301D90121009E0129309D0038
:10017000A801A80AC82821001C082000D000D1012D
:100180005008D2075108D33D0130D0005008D9079C
:1001900006302000D000D00BCB2800007C292000A6
:1001A0008D1259080A3A031D69290A30F1000030FE
:1001B000F2005508F401F4075408F301F3078731FE
:1001C0005E27803171082000D00050082100AD006A
:1001D00020082000B600210021082000B7002100DF
:1001E00022082000B8000030B3008030B400443052
:1001F000B5008331F523803120003308A300340893
:10020000A4003508A50021002D082000D000D10150
:10021000D035D10DD035D10D5008F9005108FA0074
:100220008E31D826803179082000A6007A08A700F0
:100230007B08A80083314123803120002308D600A9
:100240002408D7002508D8001430B3001E30B400AD
:100250004030B500C030C3003A30C400C430C500DF
:100260000030A3007A30A4004430A5005608A60050
:100270005708A7005808A800833141238031200087
:100280002308C6002408C7002508C80081318D2135
:10029000803120004308B6004408B7004508B80084
:1002A0008331F523200033082100A3002000340807
:1002B0002100A400200035082100A5002000D40161
:1002C000D501D901033021009E002D309D00A801E9
:1002D000080021001C082000D000D1015008D407DC
:1002E0005108D53D0130D0005008D9070630200014
:1002F000D000D00B7929000021009D14882921000D
:100300002808003A03194828013A0319CF288829F8
:1003100021009D1C7F296400882920004308C90012
:100320004408CA004508CB0003104A0D4B0DCC0011
:100330004C08CF004608C9004708CA004808CB004F
:1003400003104A0D4B0DCC004C08CE004F0803198A
:10035000B5294E084F020318BC294F03FF3A4E0738
:10036000C90019304902031CBC294608C3004708CC
:10037000C4004808C50008004E08031908004F08CB
:100380004E020318CB294E03FF3A4F07C90019301C
:100390004902031808000630C9004908CD00C51BF2
:1003A000CD17C81B4D17C417FF30C305FF30C40558
:1003B0000030C505C717FF30C605FF30C705003040
:1003C000C8054E084F020318072A0130C635C70D6D
:1003D000C80D890BE6290130CE024E084F060319DD
:1003E000022A0130CD024D0807390319022AE529F6
:1003F0000130C536C40CC30C890BF9290130C90082
:100400004908CF074F084E0603192C2AF8294F0830
:100410004E0203182C2A0130C335C40DC50D890BBB
:100420000C2A0130CF024E084F060319282A01304A
:10043000CD024D0807390319282A0B2A0130C83686
:10044000C70CC60C890B1F2A0130C9004908CE070A
:100450004F084E06031D1E2ACD1F3E2AFF30C3063D
:10046000FF30C406FF30C5060130C3070030031853
:100470000130C407003003180130C5074D1F502A52
:10048000FF30C606FF30C706FF30C8060130C6077A
:10049000003003180130C707003003180130C807C7
:1004A000CD014308C6074408C73D4508C83DC81FDD
:1004B0006B2AFF30C606FF30C706FF30C806013082
:1004C000C607003003180130C70700300318013099
:1004D000C807CD01CD0A4608F1004708F2004808D8
:1004E000F3004F08C9004908F4004D08CA004A0843
:1004F000F5008531762571082000C3007208C4001C
:100500007308C50008008B13230015151513200070
:10051000E201E0307105E000FF307205E100710892
:100520001F39F5007508E3007408620203183D2BBB
:1005300064002000E401203064020318C32A640030
:10054000200064086007F50061080318610AF600DE
:100550007508230091007608920015141518AE2A2C
:1005600020006435203E8600870123001308C03F29
:100570001408C13F0130F50075082000E407203061
:100580006402031C9F2A2300151620006108230023
:1005900092019207200060082300910191075530D5
:1005A0009600AA30960095149518D42A00000000F1
:1005B0002030200063020318002B64007408200020
:1005C00062020318002B62087307F50075088600A5
:1005D00087010108F600F7016335203E8600870198
:1005E0007608C03F7708C13F0130F5007508E20783
:1005F0000130F5007508E30720306302031CDD2A93
:10060000E301E401203064020318382B640860071A
:10061000F50061080318610AF600750823009100CF
:100620007608920020006435203E86008701403F16
:1006300023009300413F9400200064081F3A031DEB
:10064000242B23009512262B230095165530960057
:10065000AA309600951495182B2B0000000001304D
:10066000F50075082000E40720306402031C062B07
:100670002030E0070030E13D942A8B17230015114C
:10068000080020002308A9002408AA002508AB00C0
:1006900003102A0D2B0DAC002C08AD00AD08031D76
:1006A000582B0030A3000030A4000030A500080043
:1006B0002608A9002708AA002808AB0003102A0D65
:1006C0002B0DAC002C08B200B208031D6E2B0030BD
:1006D000A3000030A4000030A500080032087B3ED3
:1006E000A9002908AD072308A9002408AA002508A5
:1006F000AB001030AB36AA0CA90C890B7A2B290859
:10070000AC002C08B2002608A9002708AA00280877
:10071000AB001030AB36AA0CA90C890B8A2B290828
:10072000AC002C08B2068030A9002908B205A41735
:10073000A717FF30A605FF30A7050030A805003039
:10074000AE000030AF000030B0000730A90029082B
:10075000B100231CB12B2608AE072708AF3D28089F
:10076000B03D0130A536A40CA30C890BB22B01308F
:10077000A635A70DA80D890BB82B0130B102031DBA
:10078000A92B0930A9002908B100231CCD2B26086C
:10079000AE072708AF3D2808B03D0130A536A40CB0
:1007A000A30C890BCE2B0130B036AF0CAE0C890BED
:1007B000D42B0130B102031DC52B2E08F1002F08E8
:1007C000F2003008F3002D08A9002908F4003208CF
:1007D000AA002A08F5008531762571082000A300BB
:1007E0007208A4007308A500080020003608B900AC
:1007F0003708BA003808BB0003103A0D3B0DBC00A7
:100800003C08C100C108031D0C2C0030B3000030AF
:10081000B4000030B50008003308B9003408BA004D
:100820003508BB0003103A0D3B0DBC003C08C2006C
:10083000C208031D222C0030B3000030B400003089
:10084000B50008000030BE000030BF000030C0001E
:1008500089304207B9003908C1023608B9003708A3
:10086000BA003808BB001030BB36BA0CB90C890B83
:10087000342C3908BC003C08C2003308B9003408E5
:10088000BA003508BB001030BB36BA0CB90C890B66
:10089000442C3908BC003C08C2068030B900390835
:1008A000C205B717FF30B605FF30B7050030B805F1
:1008B000B417FF30B305FF30B4050030B50518306C
:1008C000B9003908BD000130BE35BF0DC00D890B20
:1008D000642C35083802031D732C34083702031DBD
:1008E000732C33083602031C7C2C3308B602340800
:1008F000B73B3508B83B3E140130B635B70DB80DDF
:10090000890B7D2C0130BD02031D632C3E08F100D4
:100910003F08F2004008F3004108B9003908F4002C
:100920004208BA003A08F5008531762571082000A2
:10093000B3007208B4007308B500080020006B1CF7
:10094000A92C2100A90164302000D3005308ED0038
:10095000080005302100290203180E2D470803194D
:10096000082D49082000D30053082100BC00480886
:100970002000D30053082100BD00BE018631D726D8
:10098000843120005008D4005108D5005208D60008
:100990005408D30053082100BF0020005508D3009D
:1009A00053082100C00020005608D300530821003E
:1009B000C10020082000D700210021082000D80015
:1009C000210022082000D9005708D3005308210035
:1009D000C20020005808D30053082100C3002000A3
:1009E0005908D30053082100C40009302000D30067
:1009F0005308A200BC3086312D26843101302000FE
:100A0000D30053082100A90701308E317A26210036
:100A100064302000D3005308ED00080020006A1461
:100A200008008C317C24853124000D08FA007A08F6
:100A30002000A200043024008D0021001D08FA00CF
:100A40007A082000A60021009D0122001708FA0064
:100A50007A082000A5002200970127001508FA0057
:100A60007A082000A0000B08FA007A08A10088305C
:100A70008B000430270095002000A7018D1E422D19
:100A8000A701A70A21001708FA007A082000A3008E
:100A90001B30210097001508FA007A082000A400F6
:100AA0000A30210095006400630020002008270020
:100AB0009500200021088B00220824008D002000D2
:100AC000260821009D002000250822009700200014
:100AD0008D122708031D8D16230821009700200082
:100AE0002408210095002000EA1408007408031966
:100AF0007E2D730872047104031D8F2D0030F100E8
:100B00000030F2000030F30008000130F6007608F3
:100B1000F4070130F336F20CF10C890B8A2DFE300C
:100B200073050319A82D852D0130F6007608F4070A
:100B30000130F107003003180130F20700300318CC
:100B40000130F3070130F336F20CF10C890BA32DC1
:100B5000FF3073050319B52D942D0130F4020130D7
:100B6000F135F20DF30D890BB02DF21FAD2D741878
:100B7000BF2DFF30F1057F30F205FF30F305031084
:100B8000F40C7408F600F701F8011030F635F70D93
:100B9000F80D890BC62D7608F1047708F204780861
:100BA000F304750803190800F317080066302000E5
:100BB000E5006508F700F801F80A3B308D31E725BC
:100BC0008531093020006602031C080064000930EA
:100BD0002000E5006508A000B3308C31C6248531C3
:100BE00020006B1C152E2100B308031DD62D3508DF
:100BF000013A031DD62D34082000E50065082100C8
:100C0000C900C701C70A8D31182585318F311A27D0
:100C1000853121002A142000ED018C31D424853146
:100C200003308E315C268531D62D210048083306ED
:100C3000031DD62D49083406031DD62D3508803AEC
:100C4000031DD62D36308D313E2585312000ED0136
:100C50002100A90120006A14D62D2000A400640000
:100C600027302000A3002308F700F801F80A3530E8
:100C70008D31E72586311F3020002705A30023088A
:100C80000D3A03194A2E1F302705A3002308013A05
:100C9000031D2F2E36308D313E2586312530200024
:100CA000A3002308F700F801F80A3B308D31E7254F
:100CB000863126302000A3002308F700F801F80A47
:100CC0003A308D31E72586313B308D313E258631F6
:100CD00026302000A3002308F700F801F80A3A3074
:100CE0008D31E725863120002408F7000030F80018
:100CF0002208A3002308F9003F308E31F9268631FF
:100D000035308D313E2508002000E80103306802AF
:100D10000318CB2E6400200068088F3186278631A7
:100D2000200068088D3152258631200068088E31F8
:100D300098268631200068088C31E3248631200013
:100D400068088C3195248631200068088E31202671
:100D50008631200068088D31CC2586312000680856
:100D60008731F5278631200068088F313C2786318E
:100D7000200068088D3169258631200068088F3190
:100D8000D427863101302000E7006708E8070330E8
:100D90006802031C8A2E8B176400873194278631E2
:100DA0008E313E2686318C316A248631CC2E21004C
:100DB0002008F1002108F2002208F3000030F400BE
:100DC0004030F5004030F600873123278631031C80
:100DD000062F00302000C300D830C400C230C50048
:100DE000210023082000C600210024082000C7009D
:100DF000210025082000C80081318D2120004308F2
:100E0000D0004408D1004508D2000800003020007E
:100E1000C300CC30C400C230C5002100230820002C
:100E2000C600210024082000C7002100250820005A
:100E3000C80081318D2120004308D0004408D10032
:100E40004508D2000800F31F392F7109F700720915
:100E5000F8007309F900F70A0319F80A0319F90AE7
:100E600000307707F1000030783DF2008030793DA6
:100E7000F300F61F4F2F7409F7007509F800760983
:100E8000F900F70A0319F80A0319F90A003077077D
:100E9000F4000030783DF5008030793DF600803078
:100EA000F3068030F60676087302031D0800750805
:100EB0007202031D0800740871020800F601F701B0
:100EC0007208710403198D2FF801F80AF21B722FB2
:100ED0000130F135F20D890B692F0130F5007508ED
:100EE000F807662F0130F635F70D890B732F72085E
:100EF0007402031D7D2F71087302031C842F710877
:100F0000F3027208F43B76140130F236F10C890BCF
:100F1000852F0130F802031D722F7708F201F207C6
:100F20007608F101F107080021002F1CA12F2F10D6
:100F30008C31B92487318F31AC2787318C31AC2487
:100F400087312100301CA82F30108C31F4248731D8
:100F50002100311CAF2F31108C318C2487312000BF
:100F60006A1CB82F6A100D1DB82F853111258731E5
:100F700021002A1CBF2F2A108C31602487312000C9
:100F8000EA1C0800EA108D31B225080047344634C7
:100F900080340B34D33491340934083404340034AD
:100FA000003406340034213463349134CA34833439
:100FB000023402343B34343407343F3408341634BA
:100FC0006C3403344034913487346B34FB345634FE
:100FD0001634E9342A3400341F344134003459348F
:100FE0007F343F34813435340934F100FA2F230043
:100FF000950108007108003A0319F72FFF2F080028
:1010000000345C34C534003400340034FF3FFF3F0B
:10101000FF3FFF3FFF3FFF3FFF3FFF3FFF3FFF3FE0
:1018C0002000EC016B10080021002F146330200071
:1018D0009500080020000D1808008531D625080065
:1018E000FE0012001E00FE0B712C0034640080010B
:1018F0000131890B772C003420008C1238308D3167
:101900003E2520008C16080003340F341E34273483
:1019100050348134CB34C2342100C7018D311825B5
:101920008C3103308E315C260800F1009A2C2000A7
:101930008E1708007108023A0319972C9F2C080093
:1019400021004508C53A031DA92C46085C3A031935
:1019500008008D312B25080020006C0803190800B1
:101960000130EC02EC08031D08006B108E176A149E
:10197000080020006D08031908000130ED02ED0891
:10198000031D080084319E24200008002000A300CD
:101990002308A1002108F7002008A2002208F8006F
:1019A0003F308D31E72508006430F1000030F2004F
:1019B0008D3199258C31803141208C312100A90154
:1019C00084319E240800F100EE2C2000EE01FC0181
:1019D000EF012100B201B001B10108007108013A24
:1019E0000319E52CF32C080020006B148E13160845
:1019F0001706E50065082100C8008D311825643000
:101A00002000E5006508EC0008000130F80088308F
:101A1000F9007808F1007908F200C530FA007A0878
:101A2000F3000530FB007B08F4008F3160270800CD
:101A30000130F8008830F9007808F1007908F200E8
:101A4000C530FA007A08F3000530FB007B08F4008B
:101A5000823183220800C5302000E500650821009E
:101A6000C5005C302000E50065082100C600C70104
:101A7000C801C9018D31182501000800F8002000B7
:101A80008C1278083F398038F7007708F9007930F0
:101A9000F1000030F200F301F30A8E31032620003A
:101AA0008C160800F200632D1730F1007108210038
:101AB0008D040E16FA30F100710823008D050730F1
:101AC00024008D0008007208003A0319542D682D77
:101AD00008002000E600772D013098000800EC0196
:101AE000EB018D3105258D318C31A02408002000BB
:101AF0006608003A03196C2D013A03196F2D802DE9
:101B000008002030F7000130F8002E30FB007B0881
:101B1000F90000308E31F9268D31CA30F7000030DF
:101B2000F8000830FB007B08F9003E308E31F926C2
:101B30000800F501F60172087602031DA12D710857
:101B400075020318080064000330F4009730F300B6
:101B5000F30BA82DF40BA82DAD2D0130F5070030A7
:101B6000F63D9B2D20008C120130F1000030F20078
:101B70008D3199258D3120008C160130F100003017
:101B8000F2008D3199258D3102308D31CC258D318A
:101B900002308F313C2708002000A200DD2D3030BC
:101BA0008D313E258D310530F1000030F2008D3150
:101BB00099258D318D318125080020002208013AB8
:101BC0000319E62D033A0319CF2DE62D0800FA007C
:101BD00020008C127A083F39C038F9007908FB00E0
:101BE0007B30F1000030F200F301F30A8E3103265E
:101BF0008D317808F9007908F10077088E31B82620
:101C000020008C160800F6017308760203180800FD
:101C1000200091117608F400F50174087107860020
:101C20007508723D87000108240091002000911979
:101C30001B2E0000162E0130F4007408F607042E47
:101C4000F200322E21000E16D730F10071088E05F9
:101C500024009512910101309500960140309400C6
:101C6000951608007208003A0319222E013A03194A
:101C70003D2E033A03193D2E3D2E08002000EF01B2
:101C80000D1D6F146F080139F1007C0801397106D0
:101C90000319522E7C106F1C4E2E7C142100AE01B5
:101CA00020006E147C1C562EEE1408002100A601A4
:101CB000A7012000EE100800F800F9017808790269
:101CC00003180800640020008E13C830F1000030B3
:101CD000F2008D3199258E3120008E17C830F10029
:101CE0000030F2008D3199258E310130F7007708F0
:101CF000F9075E2EF800F901780879020318080048
:101D0000640020008E130530F1000030F2008D31A8
:101D100099258E3120008E170530F1000030F20039
:101D20008D3199258E310130F7007708F9077C2E27
:101D3000F200B22E21008C011730F10071088D05E0
:101D40001030F10071088E0523008C011230F10073
:101D500071088D058E01DF30F100710820008D05BE
:101D60008E1708007208003A03199A2EB72E080041
:101D7000F400F501710875020318080020009111A4
:101D8000FF302400910020009119C82E0000C32EBE
:101D900024001108F20075087407F3007308860028
:101DA0008701720881000130F2007208F507BA2E2F
:101DB0002000A201FA1FE32EF909FA09F90A031912
:101DC000FA0AA201A20A7908F1007A08F200F301E6
:101DD0008E30A0002008F4002208A1002108F500A0
:101DE000853176257108F9007208FA007308FB0046
:101DF00008002000A0008C1220083F394038FA006B
:101E00007A08A1002130F1000030F200F301F30A5A
:101E10008E3103268E317808F201F2077708F1013E
:101E2000F1077908FA007A08F3008E3103262000C2
:101E30008C160800210049082000A800280821006D
:101E4000BC0048082000A80028082100BD008130FF
:101E50002000A80028082100BE00BF01C001C10168
:101E6000C201C301C40109302000A8002808A20053
:101E7000BC3086312D2608002000DA00532FED01FA
:101E80002100A901AA01080036308D313E258F318D
:101E900033308D313E258F3134308D313E258F31B9
:101EA0008C31D424080020005A08003A03195F2F0F
:101EB000013A03193F2F033A0319442F5F2F0800FB
:101EC00023001513F7017408770203180800640053
:101ED00077087107F50072080318720AF600750892
:101EE000230091007608920015141518752F130819
:101EF000F50077087307F6007608860087017508F5
:101F000081000130F5007508F707632FF200A32F59
:101F100006302100950073309900093097002700A2
:101F2000940195016330200095008B16FB30F10081
:101F300071088B0591019201210091019201080025
:101F40002100AF0108007208003A0319882F013AF6
:101F50000319A02FAB2F080020006E1CC12F0130E9
:101F6000F10071082100AE0706302E02031CC12FBC
:101F700020006E102100AE017C1CC02F3014C12F38
:101F800032142000EE1C080001302100A6070030AA
:101F9000A73D00302702C93003192602031C0800A0
:101FA000A601A70131140800F200F72F2D302100FF
:101FB0009D0003309E008130220097001230F10016
:101FC000710823008D0408002100A8012000E90108
:101FD0002100AD010030A0000030A1000030A200BF
:101FE0000030A3000030A4000030A50008007208F3
:101FF000003A0319D62F013A0319E42FFF2F0800E6
:020000040001F9
:08000000050008000D000D00D1
:04000E001CEFFFD70D
:00000001FF
