:020000040000FA
:1000000080311428FF3FFF3F803120007F08F0003F
:100010000B1D0D280B118C313124270016191611D8
:1000200070082000FF00090080311628FC016930AB
:1000300084000030850007308C3143248031A030AB
:1000400084000030850030308C31432480315930B9
:1000500084008C308500D030860000308700083066
:100060008C313D248031353084008F308500203044
:100070008600013087002F308C313D2420008631EE
:10008000A12E21009D18822920008D12792920009F
:1000900069080A3A031DB6280A30F1000030F20060
:1000A00021002708F401F4072608F301F3078F3134
:1000B000CA27803171082000D00050082100AE000E
:1000C00000302000B3008030B4004430B50012305E
:1000D000A3008330A4003F30A50021002E0820009B
:1000E000D000D101D035D10DD035D10D5008F90057
:1000F0005108FA008E313826803179082000A60098
:100100007A08A7007B08A8008331F92380312000FA
:100110002308B6002408B7002508B8008431AD24B0
:10012000803120003308D2003408D3003508D400D1
:100130000030A3003030A4004130A5005208A600D2
:100140005308A7005408A8008331F9238031200008
:1001500023082100A000200024082100A100200085
:1001600025082100A200A601A701C22821001C0821
:100170002000D000D10150082100A607200051081E
:100180002100A73D9E0129309D00AC01AC0A8229C7
:10019000200069080A3A031D5F290A30F100003087
:1001A000F20021002908F401F4072808F301F307FD
:1001B0008F31CA27803171082000D00050082100FB
:1001C000B30020082000B600210021082000B7005D
:1001D000210022082000B8000030B3008030B400B5
:1001E0004430B5008431AD24803120003308A300B1
:1001F0003408A4003508A500210033082000D000F1
:10020000D101D035D10DD035D10D5008F9005108AC
:10021000FA008E313826803179082000A6007A084D
:10022000A7007B08A8008331F92380312000230830
:10023000D2002408D3002508D4001430B3001E30A7
:10024000B4004030B5000030C3007230C400C43088
:10025000C5000030A3007A30A4004430A500520845
:10026000A6005308A7005408A8008331F923803161
:1002700020002308C6002408C7002508C8008131D3
:100280008B21803120004308B6004408B7004508A0
:10029000B8008431AD248031200033082100A30050
:1002A000200034082100A400200035082100A5000A
:1002B000A801A9012000E90121002D1470292100C5
:1002C0001C082000D000D10150082100A807200000
:1002D00051082100A93D01302000D0005008E90755
:1002E00020008D16033021009E002D309D00AC01B2
:1002F000822921002C08003A03194728013A0319E2
:10030000C828822906302000D000D00B85290000A3
:1003100021009D14080020004308C9004408CA00B9
:100320004508CB0003104A0D4B0DCC004C08CF0004
:100330004608C9004708CA004808CB0003104A0D08
:100340004B0DCC004C08CE004F080319B3294E08C2
:100350004F020318BA294F03FF3A4E07C90019305C
:100360004902031CBA294608C3004708C4004808CC
:10037000C50008004E08031908004F084E02031874
:10038000C9294E03FF3A4F07C90019304902031823
:1003900008000630C9004908CD00C51BCD17C81B91
:1003A0004D17C417FF30C305FF30C4050030C50525
:1003B000C717FF30C605FF30C7050030C8054E0817
:1003C0004F020318052A0130C635C70DC80D890B29
:1003D000E4290130CE024E084F060319002A0130ED
:1003E000CD024D0807390319002AE3290130C5362B
:1003F000C40CC30C890BF7290130C9004908CF0789
:100400004F084E0603192A2AF6294F084E020318F0
:100410002A2A0130C335C40DC50D890B0A2A0130C3
:10042000CF024E084F060319262A0130CD024D088F
:1004300007390319262A092A0130C836C70CC60C09
:10044000890B1D2A0130C9004908CE074F084E0606
:10045000031D1C2ACD1F3C2AFF30C306FF30C406F3
:10046000FF30C5060130C307003003180130C40750
:10047000003003180130C5074D1F4E2AFF30C60655
:10048000FF30C706FF30C8060130C607003003182A
:100490000130C707003003180130C807CD014308F9
:1004A000C6074408C73D4508C83DC81F692AFF3034
:1004B000C606FF30C706FF30C8060130C607003049
:1004C00003180130C707003003180130C807CD01F9
:1004D000CD0A4608F1004708F2004808F3004F082B
:1004E000C9004908F4004D08CA004A08F5008631E1
:1004F000412671082000C3007208C4007308C500BB
:1005000008008B132300151515132000E201E030BD
:100510007105E000FF307205E10071081F39F50038
:100520007508E3007408620203183B2B6400200086
:10053000E401203064020318C12A6400200064082A
:100540006007F50061080318610AF60075082300CA
:1005500091007608920015141518AC2A2000643515
:10056000203E8600870123001308C03F1408C13FC6
:100570000130F50075082000E40720306402031CF8
:100580009D2A23001516200061082300920192077E
:100590002000600823009101910755309600AA3091
:1005A000960095149518D22A0000000020302000F3
:1005B00063020318FE2A6400740820006202031814
:1005C000FE2A62087307F500750886008701010896
:1005D000F600F7016335203E860087017608C03FAC
:1005E0007708C13F0130F5007508E2070130F500DA
:1005F0007508E30720306302031CDB2AE301E401F2
:10060000203064020318362B64086007F500610887
:100610000318610AF600750823009100760892001D
:1006200020006435203E86008701403F2300930070
:10063000413F9400200064081F3A031D222B230031
:100640009512242B2300951655309600AA3096005B
:1006500095149518292B000000000130F50075084D
:100660002000E40720306402031C042B2030E00744
:100670000030E13D922A8B1723001511080020005D
:100680006A1C4A2B2100AF0164302000A800280812
:10069000ED000800053021002F020318F62B2D1C59
:1006A000F02B4F082000A80028082100C2004E08A7
:1006B0002000A80028082100C300C401230820004E
:1006C000A900210024082000AA00210025082000FC
:1006D000AB002908F1002A08F2002B08F30085314D
:1006E0005625833171082000A80028082100C50084
:1006F0000330293E86008701403FF100413FF20070
:10070000423FF30085315625833171082000A8004F
:1007100028082100C6000630293E86008701403F98
:10072000F100413FF200423FF3008531562583310D
:1007300071082000A80028082100C7002008200018
:10074000A900210021082000AA0021002208200081
:10075000AB002908F1002A08F2002B08F3008531CC
:100760005625833171082000A80028082100C80000
:100770000330293E86008701403FF100413FF200EF
:10078000423FF30085315625833171082000A800CF
:1007900028082100C9000630293E86008701403F15
:1007A000F100413FF200423FF3008531562583318D
:1007B00071082000A80028082100CA000930200084
:1007C000A8002808A200C2308631F8268331013003
:1007D0002000A80028082100AF0701308D31BC257A
:1007E00064302000A8002808ED00080020006B14E9
:1007F000080020002308A9002408AA002508AB004F
:1008000003102A0D2B0DAC002C08AD00AD08031D04
:10081000102C0030A3000030A4000030A500080018
:100820002608A9002708AA002808AB0003102A0DF3
:100830002B0DAC002C08B200B208031D262C003092
:10084000A3000030A4000030A500080032087B3E61
:10085000A9002908AD072308A9002408AA00250833
:10086000AB001030AB36AA0CA90C890B322C29082E
:10087000AC002C08B2002608A9002708AA00280806
:10088000AB001030AB36AA0CA90C890B422C2908FE
:10089000AC002C08B2068030A9002908B205A417C4
:1008A000A717FF30A605FF30A7050030A8050030C8
:1008B000AE000030AF000030B0000730A9002908BA
:1008C000B100231C692C2608AE072708AF3D280875
:1008D000B03D0130A536A40CA30C890B6A2C013065
:1008E000A635A70DA80D890B702C0130B102031D90
:1008F000612C0930A9002908B100231C852C260889
:10090000AE072708AF3D2808B03D0130A536A40C3E
:10091000A30C890B862C0130B036AF0CAE0C890BC2
:100920008C2C0130B102031D7D2C2E08F1002F0804
:10093000F2003008F3002D08A9002908F40032085D
:10094000AA002A08F5008631412671082000A3007C
:100950007208A4007308A500080020003608B9003A
:100960003708BA003808BB0003103A0D3B0DBC0035
:100970003C08C100C108031DC42C0030B300003086
:10098000B4000030B50008003308B9003408BA00DC
:100990003508BB0003103A0D3B0DBC003C08C200FB
:1009A000C208031DDA2C0030B3000030B400003060
:1009B000B50008000030BE000030BF000030C000AD
:1009C00089304207B9003908C1023608B900370832
:1009D000BA003808BB001030BB36BA0CB90C890B12
:1009E000EC2C3908BC003C08C2003308B9003408BC
:1009F000BA003508BB001030BB36BA0CB90C890BF5
:100A0000FC2C3908BC003C08C2068030B90039080B
:100A1000C205B717FF30B605FF30B7050030B8057F
:100A2000B417FF30B305FF30B4050030B5051830FA
:100A3000B9003908BD000130BE35BF0DC00D890BAE
:100A40001C2D35083802031D2B2D34083702031DD9
:100A50002B2D33083602031C342D3308B60234081C
:100A6000B73B3508B83B3E140130B635B70DB80D6D
:100A7000890B352D0130BD02031D1B2D3E08F100F1
:100A80003F08F2004008F3004108B9003908F400BB
:100A90004208BA003A08F500863141267108200064
:100AA000B3007208B4007308B50008007108F500BF
:100AB0007208F6007308F7000310760D770DF80042
:100AC00078082000A500A508031D6F2D0030F40054
:100AD0000030F3000030F2000030F100080071082F
:100AE000F5007208F6007308F7001730F736F60CB9
:100AF000F50C890B762D7508F8007808A000F21720
:100B0000FF30F105FF30F2050030F3057108A10058
:100B10007208A2007308A300A4018E30A502A51FCD
:100B2000AD2D2508803A8F3E03189F2D0030F4002C
:100B30000030F3000030F2000030F1000800013016
:100B4000A436A30CA20CA10C890BA02D0130F5003A
:100B50007508A5070319C62D9F2D18302502031C03
:100B6000C32D0030F4000030F3000030F2000030FC
:100B7000F10008000130A135A20DA30DA40D890BD1
:100B8000BB2D0130A502A508031DBA2D20080319AD
:100B9000D42DA109A209A309A409A10A0319A20A33
:100BA0000319A30A0319A40A2408F4002308F30074
:100BB0002208F2002108F10008008C314924853117
:100BC00024000D08FA007A082000A2000430240056
:100BD0008D0021001D08FA007A082000A6002100DF
:100BE0009D0122001708FA007A082000A5002200C3
:100BF000970127001508FA007A082000A0000B08CA
:100C0000FA007A08A10088308B0004302700950094
:100C10002000A7018D1E0E2EA701A70A210017088C
:100C2000FA007A082000A3001B3021009700150865
:100C3000FA007A082000A4000A3021009500640020
:100C400063002000200827009500200021088B0069
:100C5000220824008D002000260821009D0020008D
:100C600025082200970020008D122708031D8D16ED
:100C7000230821009700200024082100950030144B
:100C8000080074080319492E730872047104031DC7
:100C90005A2E0030F1000030F2000030F30008005E
:100CA0000130F6007608F4070130F336F20CF10C4F
:100CB000890B552EFE3073050319732E502E01300B
:100CC000F6007608F4070130F10700300318013010
:100CD000F207003003180130F3070130F336F20C4D
:100CE000F10C890B6E2EFF3073050319802E5F2ED9
:100CF0000130F4020130F135F20DF30D890B7B2E3A
:100D0000F21F782E74188A2EFF30F1057F30F2051D
:100D1000FF30F3050310F40C7408F600F701F80136
:100D20001030F635F70DF80D890B912E7608F10489
:100D30007708F2047808F304750803190800F3171C
:100D400008002100D801033058020318E92E64007E
:100D5000210058088E31E7268631210058088D3150
:100D600017258631210058088D31F825863121005C
:100D700058088C31B9248631210058088C316124FF
:100D80008631210058088D31802586312100580890
:100D90008F3164278631210058088C316C248631CC
:100DA000210058088E319C26863121005808873151
:100DB000E8278631210058088F3194278631013089
:100DC0002000E80068082100D80703305802031CFF
:100DD000A72E8B1764008731A12786318D319E2580
:100DE00086318031412086318C3137248631EA2E9C
:100DF0002000A400640027302000A3002308F7008F
:100E0000F801F80A35308D31472586311F30200032
:100E1000A3002308A70527080D3A0319132F270855
:100E2000013A031DFA2E36308D31032586312530E7
:100E30002000A3002308F700F801F80A3B308D31A9
:100E40004725863126302000A3002308F700F8014B
:100E5000F80A3A308D31472586313B308D310325F4
:100E6000863126302000A3002308F700F801F80A95
:100E70003A308D314725863120002408F7000030B4
:100E8000F8002208A3002308F9003F308E315926CC
:100E9000863135308D310325080066302000E500AD
:100EA0006508F700F801F80A3B308D314725873196
:100EB000093020006602031C08006400093020008D
:100EC000E5006508A000B9308C319B2487312000F3
:100ED0006A1C892F2100B908031D4D2F3B08013AD8
:100EE000031D4D2F3A082000E50065082100CF00C2
:100EF0008C31DD2487318E317A2687312000EB1446
:100F0000ED018C312C24873103308D31DA25873186
:100F10004D2F21004E083906031D4D2F4F083A066C
:100F2000031D4D2F3B08803A031D4D2F36308D3168
:100F3000032587312000ED012100AF0120006B1453
:100F40004D2F2100351CAE2F35108C318E2487316A
:100F50008F310D2787318C31772487312100361C62
:100F6000B52F36108C31512487312100371CBC2F0E
:100F700037108C31A924873120006B1CC52F6B10D2
:100F80000D1DC52F8531DD2587312000EB1CCC2FB1
:100F9000EB108C31282487312100301C08003010E0
:100FA0002000E701033067020318E32F67088F3141
:100FB0006427873101302000E6006608E707033028
:100FC0006702031CD62F21002D108C312C24080021
:100FD0002000E600F62F013098000800EC01EA013D
:100FE0008C31CA2487318C318224080020006608A5
:100FF000003A0319EB2F013A0319EE2FFF2F0800D7
:1010000000345C34C534003400340034FF3FFF3F0B
:10101000FF3FFF3FFF3FFF3FFF3FFF3FFF3FFF3FE0
:10184000FF3FFF3FFF3FFF3FFF3FFF3FFF3FFF3FA8
:101850002000EC016A1008002100AF0183313F2312
:101860000800210035146330200095000800200096
:101870000D18080087314D270800FE0012001E00D9
:10188000FE0B3E2C0034640080010131890B442C96
:10189000003420008C1238308D31032520008C1646
:1018A000080020006A148E136430F1007108EC0007
:1018B000080003340F341E34273450348134CB34C1
:1018C000C234F100662C20008E1708007108023A1D
:1018D0000319632C6B2C0800F100712C2300950177
:1018E00008007108003A03196E2C762C08002000BD
:1018F0006C08031908000130EC02EC08031D080015
:101900006A10080021004B08C53A031D8B2C4C08B7
:101910005C3A031908008C31F024080020006D089F
:10192000031908000130ED02ED08031D08008331A2
:101930003F23200008002000A3002308A100210865
:10194000F7002008A2002208F8003F308D3147251B
:101950000800200016081706E50065082100CE00E3
:10196000CD01CD0A8C31DD248C3103308D31DA2567
:101970000800F100C42C2000EE01FC01EF01210061
:10198000B801B601B70108007108013A0319BB2C70
:10199000C92C08000130F8008830F9007808F100FF
:1019A0007908F200CB30FA007A08F3000530FB002A
:1019B0007B08F4008E31C12608000130F800883021
:1019C000F9007808F1007908F200CB30FA007A08C3
:1019D000F3000530FB007B08F4008231812208000F
:1019E000C5302000E50065082100CB005C302000F8
:1019F000E50065082100CC00CD01CE01CF018C317E
:101A0000DD2401000800F80020008C1278083F391E
:101A10008038F7007708F9007930F1000030F200E3
:101A2000F301F30A8D31632520008C160800F200C3
:101A3000282D1730F100710821008D040E16FA30A0
:101A4000F100710823008D05073024008D00080087
:101A50007208003A0319192D2D2D0800F501F60121
:101A600072087602031D362D7108750203180800EE
:101A700064000330F4009730F300F30B3D2DF40BBA
:101A80003D2D422D0130F5070030F63D302DFA0096
:101A900020008C127A083F39C038F9007908FB0021
:101AA0007B30F1000030F200F301F30A8D31632541
:101AB0008D317808F9007908F10077088E31182601
:101AC00020008C160800F60173087602031808003F
:101AD000200091117608F400F50174087107860062
:101AE0007508723D870001082400910020009119BB
:101AF0007B2D0000762D0130F4007408F607642D6C
:101B0000F200922D21000E16D730F10071088E05DB
:101B10002400951291010130950096014030940007
:101B2000951608007208003A0319822D013A03192C
:101B30009D2D033A03199D2D9D2D08002000EF01D6
:101B40000D1D6F146F080139F1007C080139710611
:101B50000319B22D7C106F1CAE2D7C142100B40132
:101B600020006E147C1CB62DEE1408002100AA0182
:101B7000AB012000EE100800F800F90178087902A6
:101B800003180800640020008E130530F1000030B7
:101B9000F2008D312E258D3120008E170530F10099
:101BA0000030F2008D312E258D310130F70077089D
:101BB000F907BE2DF800F90178087902031808002A
:101BC000640020008E13C830F1000030F2008D3127
:101BD0002E258D3120008E17C830F1000030F20024
:101BE0008D312E258D310130F7007708F907DC2D76
:101BF000F200122E21008C011730F10071088D05C2
:101C00001030F10071088E0523008C011230F100B4
:101C100071088D058E01DF30F100710820008D05FF
:101C20008E1708007208003A0319FA2D172E0800C3
:101C3000F400F501710875020318080020009111E5
:101C4000FF302400910020009119282E0000232E3F
:101C500024001108F20075087407F3007308860069
:101C60008701720881000130F2007208F5071A2E10
:101C70002000A201FA1F432EF909FA09F90A0319F3
:101C8000FA0AA201A20A7908F1007A08F200F30127
:101C90008E30A0002008F4002208A1002108F500E1
:101CA000863141267108F9007208FA007308FB00BA
:101CB00008002000A0008C1220083F394038FA00AC
:101CC0007A08A1002130F1000030F200F301F30A9C
:101CD0008D3163258E317808F201F2077708F10122
:101CE000F1077908FA007A08F3008D3163252000A6
:101CF0008C16080021004F082000A80028082100A9
:101D0000C2004E082000A80028082100C30081302E
:101D10002000A80028082100C400C501C601C70191
:101D2000C801C901CA0109302000A8002808A20082
:101D3000C2308631F82608002000AC00B42EED0138
:101D40002100AF012000EB01080036308D31032562
:101D50008E3133308D3103258E3134308D31032572
:101D60008E318C312C24080020002C08003A0319F5
:101D7000C02E013A03199F2E033A0319A52EC02E37
:101D8000080023001513F7017408770203180800F0
:101D9000640077087107F50072080318720AF600EC
:101DA0007508230091007608920015141518D62E98
:101DB0001308F50077087307F60076088600870198
:101DC000750881000130F5007508F707C42EF20090
:101DD000042F0630210095007330990009309700D8
:101DE0002700940195016330200095008B16FB308D
:101DF000F10071088B05910192012100910192017E
:101E000008002100B50108007208003A0319E92E04
:101E1000013A0319012F0C2F080020006E1C222FFD
:101E20000130F10071082100B40706303402031CB0
:101E3000222F20006E102100B4017C1C212F3614AB
:101E4000222F38142000EE1C080001302100AA07C0
:101E50000030AB3D00302B02C93003192A02031CAD
:101E60000800AA01AB013714080047344634803417
:101E70001B34D3349134093408340434003400342E
:101E800006340034213463349134CA348334023448
:101E900002343B34343407343F34083416346C3461
:101EA00003344034913487346B34FB345634163465
:101EB000E9342A3400341F344134003459347F3437
:101EC0003F348134353409342000A2008A2F303069
:101ED0008D3103258F310130F1000030F2008D315A
:101EE0002E258F312030F7000130F8002E30FB0016
:101EF0007B08F90000308E3159268F31D030F70041
:101F00000030F8000830FB007B08F9003E308E31CD
:101F10005926080020002208013A0319932F033A9A
:101F20000319672F932F0800F200BE2F2D302100D8
:101F30009D0003309E008130220097001230F10096
:101F4000710823008D0408002100AC01AE01B3012B
:101F50000030A0000030A1000030A2000030A3003B
:101F60000030A4000030A500AD0108000630F100EB
:101F7000F10BB82F000021009D1408007208003AF0
:101F80000319962F013A0319A42F033A0319B62F08
:101F9000C92F0800F701F801720871040319F92F1D
:101FA000F601F60AF21BDE2F0130F135F20D890B36
:101FB000D52F0130F5007508F607D22F0130F7351F
:101FC000F80D890BDF2F72087402031DE92F7108C9
:101FD0007302031CF02F7108F3027208F43B7714AC
:101FE0000130F236F10C890BF12F0130F602031D9E
:101FF000DE2F7808F201F2077708F101F1070800F7
:020000040001F9
:080000000400070004000A00DF
:04000E001CEFFFD70D
:00000001FF
