:020000040000FA
:1000000080311128FF3FFF3F803120007F08F00042
:100010000B1D0D280B119431982470082000FF004F
:10002000090080311328FC01EE01EF01E03084006B
:10003000003085000F309431B024803120308400AE
:100040000130850034309431B02480312530840073
:10005000953085005430860001308700113094318E
:10006000AA2480317B30840089308500A03086004E
:10007000013087002F309431AA2420008B31B92B16
:100080002100DE00DF0110305F0203185B28203002
:100090002000DE0021005F08CD3E860087012000A1
:1000A0005E0881000130DE005E082100DF071030AD
:1000B0005F02031C4728DF0110305F020318742819
:1000C00020302000DE0021005F08BC3E8600870152
:1000D00020005E0881000130DE005E082100DF079D
:1000E00010305F02031C60285E08033A0319802861
:1000F0005E08043A031980285E08053A031D542956
:1001000050302000DE005E082100CE00723020005A
:10011000DE005E082100CF006F302000DE005E08A8
:100120002100D00067302000DE005E082100D100F1
:1001300072302000DE005E082100D2006130200015
:10014000DE005E082100D3006D302000DE005E0876
:100150002100D4006D302000DE005E082100D500B3
:1001600061302000DE005E082100D6007A302000D9
:10017000DE005E082100D70069302000DE005E0846
:100180002100D8006F302000DE005E082100D90079
:100190006E302000DE005E082100DA0065302000AD
:1001A000DE005E082100DB005E08053A031DF7282B
:1001B00052302000DE005E082100C10045302000E2
:1001C000DE005E082100C20053302000DE005E0821
:1001D0002100C30045302000DE005E082100C4007D
:1001E00054302000DE005E082100C5009D2A493001
:1001F0002000DE005E082100C10044302000DE0047
:100200005E082100C2003A302000DE005E082100B6
:10021000C3005E08033A031D20293F302000DE00A2
:100220005E082100C4003F302000DE005E0821008F
:10023000C5003F302000DE005E082100C6009D2A78
:10024000220052082000DE00DF015E08A8005F08DF
:10025000A9000A30AA000030AB00B8308831502025
:1002600080312100DF0104305F0203189D2A5F08FE
:10027000B83E86008701810803199D2A5F08B83EB1
:100280008600870101082000DE0021005F08083E8B
:10029000BC3E8600870120005E0881000130DE0040
:1002A0005E082100DF0733295E08023A031DBE29DC
:1002B00042302000DE005E082100D00061302000C6
:1002C000DE005E082100D10074302000DE005E08F0
:1002D0002100D20074302000DE005E082100D3002F
:1002E00065302000DE005E082100D400723020005E
:1002F000DE005E082100D50069302000DE005E08C7
:100300002100D60061302000DE005E082100D70009
:100310003A302000DE005E082100D8000F302000B7
:10032000DE005E082100CC00220020082000D5005D
:10033000220021082000D600220022082000D70039
:10034000BC30DE005E08D80021004C082000DF0031
:100350005F08D90085318B2580312000E0006008DE
:100360002100DD0056302000DE0021005D08BC3E8B
:100370008600870120005E0881009D2A54302000FD
:10038000DE005E082100CF0065302000DE005E0840
:100390002100D0006D302000DE005E082100D10079
:1003A00070302000DE005E082100D20065302000A1
:1003B000DE005E082100D30072302000DE005E08FF
:1003C0002100D40061302000DE005E082100D5004D
:1003D00074302000DE005E082100D6007530200059
:1003E000DE005E082100D70072302000DE005E08CB
:1003F0002100D80061302000DE005E082100D90015
:100400003A302000DE005E082100DA005E08013A82
:10041000031D702A0E302000DE005E082100CC0093
:1004200022002008F1002108F2002208F300003029
:10043000F4002030F5004030F6008A317722803118
:100440000318282A0D302000DE005E082100CC00B1
:10045000220023082000D500220024082000D60016
:10046000220025082000D700BC30DE005E08D8003E
:1004700021004C082000DF005F08D90085318B2562
:1004800080312000E00060082100DD00DF30200026
:10049000DE0021005D08BC3E8600870120005E086A
:1004A00081004330DE0021005D0ABC3E86008701EA
:1004B00020005E08810022002008F1002108F200DF
:1004C0002208F3000030F4002030F5004030F60040
:1004D0008A317722803103189D2A2100CB019D2A81
:1004E000DE08031D9D2A3F302000DE005E0821004B
:1004F000C1003F302000DE005E082100C2002E3027
:100500002000DE005E082100C3003F302000DE0036
:100510005E082100C4003F302000DE005E0821009C
:10052000C500DF302000DE005E082100C600433039
:100530002000DE005E082100C7002000A001CD30B1
:10054000DE005E08A1001030DF005F08A20000306E
:100550008B31732380312000A001BC30DE005E08A7
:10056000A1001030DF005F08A20001308B3173233F
:1005700008002000C1002E30B6003608BC002D084F
:10058000AD0A88310A008231B6003608C600C608B6
:1005900003198F2C4608253A0319DB2A4608B600B2
:1005A0004108860001308700360881000130B6001E
:1005B0003608C107BF2AC201C301BB012D0888311B
:1005C0000A0082319431E8248231031C1A2B200066
:1005D000C201C3010A30F1000030F20020004308DC
:1005E000F401F4074208F301F30796318B268231B8
:1005F00072082000C301C3077108C201C2072D0899
:1006000088310A008331D03EB600FF300318003035
:10061000B7003608C2073708C33D0130B6003608B8
:10062000AD072D0888310A0083319431E8248231E6
:100630000318EA2A20002D0888310A0083312E3A57
:10064000031D572B0130B6003608AD07C401C501A4
:100650002D0888310A0083319431E8248231031C4B
:10066000622B20002D0888310A008331B600B701C3
:100670004508F201F2074408F101F1070A30F300DE
:100680000030F40096318B26823120003608710745
:10069000B8003708723DB9003808D03EC400FF30BA
:1006A000393DC5000130B6003608AD07282B2000C3
:1006B000C401C501622B3B16622BC030B600360860
:1006C000BB04732B20002D08AD0A88310A0083314A
:1006D000C600003A03198F2C6C3A03195B2B193AA8
:1006E00003195D2BBF2A3B1E822B3C088600870125
:1006F000403FBD00413FBE00423FBF00433FC000FE
:100700000430902B3C0886008701403FB600413FF3
:10071000B7003608BD003708BE00BF01C001023077
:10072000B6003608BC0745084404031DA12B400849
:100730003F043E043D04031DA12B0130C4070030DB
:10074000C53DC601C60A46080A3A0319D62B013030
:100750008400883085004608B6000130B635FF3E7B
:10076000031DAE2B363584070318850A003FB700FA
:10077000013FB800023FB900033FBA003A08400207
:10078000031DCC2B39083F02031DCC2B38083E0239
:10079000031DCC2B37083D02031CD62B0130B600BD
:1007A0003608C60746080A3A031DA72B4608B600B6
:1007B000B701B61BB7033708803AB8004508803A3E
:1007C0003802031DE52B440836020318ED2B2000E8
:1007D0004408B6003608C600052C20004608B600BE
:1007E000B701B61BB7034508803AB8003708803A0E
:1007F0003802031DFD2B360844020318052C200087
:100800004608C400C501C41BC50320004608B60045
:10081000B701B61BB7033708803AB8004308803ADF
:100820003802031D152C420836020318222C200022
:100830004608B600B701B61BB7033608C202370830
:10084000C33B252C2000C201C30143084204031905
:10085000822C2030B600410886000130870036081F
:1008600081000130B6003608C107FF30C207FF30F3
:10087000C33D252C0030A8000030A7000030A600A2
:100880000A30A50001308400883085004408B60095
:100890000130B635FF3E031D492C36358407031859
:1008A000850A003FF100013FF200023FF300033FE1
:1008B000F4004008F8003F08F7003E08F6003D0845
:1008C000F5008C310724823174082000AC007308D5
:1008D000AB007208AA007108A9008B313023823165
:1008E00020002508303EB7003708C6004608B6008D
:1008F0004108860001308700360881000130B600CB
:100900003608C107FF30C407FF30C53DFF3045063C
:10091000031D8C2CFF3044060319BF2A3A2C4108D2
:100920008600013087008101080020002008A60011
:100930002108A7002208A8000310270D280DA900F0
:100940002908FB002308A6002408A7002508A80002
:100950000310270D280DA9002908FA007B080319A8
:10096000BD2C7A087B020318C42C7B03FF3A7A075C
:10097000A60019302602031CC42C2308A00024085A
:10098000A1002508A20008007A08031908007B08C6
:100990007A020318D32C7A03FF3A7B07A60019309A
:1009A0002602031808000630A6002608F900A21B3C
:1009B000F917A51B7917A117FF30A005FF30A10576
:1009C0000030A205A417FF30A305FF30A4050030B6
:1009D000A5057A087B0203180F2D0130A335A40D5D
:1009E000A50D890BEE2C0130FA027A087B0603195B
:1009F0000A2D0130F9027908073903190A2DED2C67
:100A00000130A236A10CA00C890B012D0130A600EB
:100A10002608FB077B087A060319342D002D7B0876
:100A20007A020318342D0130A035A10DA20D890BD7
:100A3000142D0130FB027A087B060319302D01309A
:100A4000F902790807390319302D132D0130A53625
:100A5000A40CA30C890B272D0130A6002608FA0749
:100A60007B087A06031D262DF91F462DFF30A006B0
:100A7000FF30A106FF30A2060130A00700300318A6
:100A80000130A107003003180130A207791F582D4B
:100A9000FF30A306FF30A406FF30A5060130A307F0
:100AA000003003180130A407003003180130A507F7
:100AB000F9012008A3072108A43D2208A53DA51F90
:100AC000732DFF30A306FF30A406FF30A5060130CA
:100AD000A307003003180130A407003003180130C9
:100AE000A507F901F90A2308F1002408F2002508F6
:100AF000F3007B08A6002608F4007908A700270861
:100B0000F5008D315A2571082000A0007208A1005F
:100B10007308A200080020005508C7005608C80046
:100B20005708C900B030DA005A08CA008E31B5261D
:100B300085312000DB005B082100B500B301B7015F
:100B4000103037020318032E370835072000DA006B
:100B50005A0886000130870001082E3A031DB92D7E
:100B60002100B301B30A37082000DA005A08210037
:100B7000B200210033080319DB2D32082000DA000F
:100B8000DB01DA09DB09DA0A0319DB0A210037087D
:100B900020005A07DC005B0803185B0ADD005D08D3
:100BA000803AFF0080307F02031DD82D03305C02A5
:100BB0000318032E21002100370835072000DA0032
:100BC0005A0886000130870081080319032E21008E
:100BD000370835072000DA005A0886000130870000
:100BE0000108DB0021003708A03E860087012000B5
:100BF0005B0881000130DA005A082100B707103085
:100C00003702031CA42D2000590821003702031CC1
:100C1000102E20005908FF3EDA005A082100B700C4
:100C20000230F1000030F20037082000DA00DB016A
:100C3000DA09DB09DA0A0319DB0A59085A07F30053
:100C40005B0803185B0AF4008C315A248531710863
:100C50002000DC005C082100B400B6013708360231
:100C600003184E2E3608A03E86008701010820009A
:100C7000DA002100340820005807DB002100360884
:100C800020005B07DC005C08860087015A088100B1
:100C90000130DA005A082100B6072E2E3608340734
:100CA00008008B132300151515132000E201E03016
:100CB0007105E000FF307205E10071081F39F50091
:100CC0007508E3007408620203180C2F640020000A
:100CD000E401203064020318912E640020006408AF
:100CE0006007F50061080318610AF6007508230023
:100CF000910076089200151415187C2E200064359A
:100D0000203E8600870123001308C03F1408C13F1E
:100D10000130F50075082000E40720306402031C50
:100D20006D2E230015162000610823009201920702
:100D30002000600823009101910755309600AA30E9
:100D4000960095149518A22E000000002030200077
:100D500063020318CF2E6400740820006202031897
:100D6000CF2E62087307F5007508860001308700F2
:100D70000108F600F7016335203E860087017608FA
:100D8000C03F7708C13F0130F5007508E207013028
:100D9000F5007508E30720306302031CAB2EE30166
:100DA000E401203064020318072F64086007F5008F
:100DB00061080318610AF60075082300910076089F
:100DC000920020006435203E86008701403F2300CA
:100DD0009300413F9400200064081F3A031DF32E46
:100DE00023009512F52E2300951655309600AA3053
:100DF000960095149518FA2E000000000130F500B9
:100E000075082000E40720306402031CD52E203032
:100E1000E0070030E13D622E8B172300151108001A
:100E200020002008A6002108A7002208A80003101F
:100E3000270D280DA9002908AA00AA08031D272F9D
:100E40000030A0000030A1000030A20008002308FC
:100E5000A6002408A7002508A8000310270D280DC8
:100E6000A9002908AF00AF08031D3D2F0030A000E6
:100E70000030A1000030A20008002F087B3EA60031
:100E80002608AA072008A6002108A7002208A80013
:100E90001030A836A70CA60C890B492F2608A900EC
:100EA0002908AF002308A6002408A7002508A800E9
:100EB0001030A836A70CA60C890B592F2608A900BC
:100EC0002908AF068030A6002608AF05A117A41791
:100ED000FF30A305FF30A4050030A5050030AB00AE
:100EE0000030AC000030AD000730A6002608AE0090
:100EF000201C802F2308AB072408AC3D2508AD3DFE
:100F00000130A236A10CA00C890B812F0130A33532
:100F1000A40DA50D890B872F0130AE02031D782F7C
:100F20000930A6002608AE00201C9C2F2308AB0722
:100F30002408AC3D2508AD3D0130A236A10CA00C23
:100F4000890B9D2F0130AD36AC0CAB0C890BA32F58
:100F50000130AE02031D942F2B08F1002C08F20083
:100F60002D08F3002A08A6002608F4002F08A70081
:100F70002708F5008D315A2571082000A00072085D
:100F8000A1007308A20008008931212187310130B6
:100F90002200A6070030A73D03302702E9300319DD
:100FA0002602031CE12FA601A701363095319425B6
:100FB000873133309531942587313A3095319425F6
:100FC0008731210067080319EE2F0130E702E70897
:100FD000031DEE2F9631E52687312100210061089F
:100FE0006004031908000130E0020030E13B6108B1
:100FF0006004031D08000130803140200800FF3FDD
:10100000003401340034003400340A340034003435
:1010100000346434003400340034E83403340034E1
:1010200000341034273400340034A03486340134C2
:101030000034403442340F340034803496349834D1
:1010400000340034E134F53405340034CA349A34C1
:101050003B345C34C53400340034003425346C3403
:1010600075342E34253436342E3436346C3475349D
:101070000034F2004A2821008C010730F100710889
:101080008D051030F10071088E0523008C018D0153
:101090008E0108007208003A03193B284F28080007
:1010A0002000AD002D08FA007A08AC00A91F6828BE
:1010B0002D30FA002D08860087017A088100013062
:1010C000FA007A08AD07A809A909A80A0319A90A0C
:1010D0002908A101A1072808A001A0072B08A30146
:1010E000A3072A08A201A2072D088D31BA250800FE
:1010F0002100691C8D280130F1007108E6070630D7
:101100006602031C8D286910E60120006E1C8B28E6
:1011100021006A148D2821006C14E91C080001309C
:101120002200A8070030A93D00302902C930031968
:101130002802031C0800A801A90121006B14080063
:101140002000E100BD282100E701E3012200A60103
:10115000A7012100E001E101080036309531942516
:101160008831333095319425883134309531942548
:101170008831003080314020080020006108003AAA
:101180000319C928013A0319A328033A0319AD2802
:10119000C92808008E30F9007908FA00FF302000D5
:1011A00023050319E02801302000A336A20CA10C6E
:1011B000A00C890BD4280130F9007908FA07CE2851
:1011C0002008F1002108F2002208F3007A08F90053
:1011D0007908F400F5018D315A2571082000A0002E
:1011E0007208A1007308A20008002000A000A2015C
:1011F0000930220203180800220820073F3940382E
:10120000F9007908A1002108F9007908F5000030FB
:101210008C31AD248831200022087807F900790844
:101220008600013087000108FA007A08F5000130D5
:101230008C31AD2488310130F90079082000A207F3
:10124000F8287C302000A0000030A100A201A20AF2
:1012500035309731692789314129343095319425CA
:1012600008003A30953194258931343095319425F0
:1012700008003B30953194258931343095319425DF
:1012800008007C08013A03192D29103A0319312965
:10129000073A031939294C29080072087104031907
:1012A0007429F601F60AF21B5F290130F135F20DBF
:1012B000890B56290130F5007508F6075329720885
:1012C0007402031D652971087302031C6B297108E0
:1012D000F3027208F43B0130F236F10C890B6C29F1
:1012E0000130F602031D5F297408F201F20773084A
:1012F000F101F1070800473446344E340B34D3343F
:101300009134093408340434003400340634003491
:10131000213463349134CA348334023402343B348C
:10132000343407343F34083416346C3403344034D6
:10133000913487346B34FB3456341634E9342A3410
:1013400000341F344134003459347F343F34813405
:10135000353409342000A200CF29270094019501DB
:1013600008003030953194258931A0302000A0004C
:101370002008F7002E30A1002108F8000030963137
:10138000C62689315D302000A0002008F700083013
:10139000A1002108F8003E309631C6260800200042
:1013A0002208003A0319AD29013A0319DB29033A4F
:1013B0000319B129DB290800F60022000C12F608F7
:1013C000031DE4290C13E8297608013A03190C17C8
:1013D0008C136430F1000030F2009531142589310E
:1013E00022000C166430F1000030F2009531142513
:1013F000893175080F399631522689316430F100F0
:101400000030F20095311425893122000C1264302D
:10141000F1000030F2009531142508002100681C0D
:101420001B2A68108731C4278A31883178208A3195
:10143000953104258A3121006A1C252A6A109531CC
:10144000A8258A31963137268A3121006B1C2C2A37
:101450006B10973104278A312100E31C332AE310F3
:101460009431C7248A312100E21C3A2AE2109431D7
:1014700093248A312100621D0800621194319E2458
:101480000800F601F701720871040319702AF801C7
:10149000F80AF21B552A0130F135F20D890B4C2A5E
:1014A0000130F5007508F807492A0130F635F70DC7
:1014B000890B562A72087402031D602A7108730290
:1014C000031C672A7108F3027208F43B761401309A
:1014D000F236F10C890B682A0130F802031D552AF7
:1014E0007708F201F2077608F101F1070800F31F0F
:1014F0008D2A7109F7007209F8007309F900F70ADB
:101500000319F80A0319F90A00307707F1000030CF
:10151000783DF2008030793DF300F61FA32A74096C
:10152000F7007509F8007609F900F70A0319F80AB7
:101530000319F90A00307707F4000030783DF50010
:101540008030793DF6008030F3068030F60676086C
:101550007302031D080075087202031D0800740859
:10156000710208000F30F1000030F2009531EA25D9
:101570008A3122000C138C130230FB007B08F5002B
:1015800000308931DC218A312030FB007B082000CB
:10159000A300A3152308FB007B08F50000308C3165
:1015A000AD248A310E30FB007B08F50000308C3111
:1015B000AD248A310630FB007B08F50000308C3109
:1015C000AD248A31F501F50A00308C31AD248A3121
:1015D0005430FB007B08F80000308831F52008000B
:1015E0000F30F500750821008C0422000C120C133A
:1015F0008C176430F1000030F200953114258A31E7
:1016000022000C16F60120000C1C082BF601F60A2D
:101610006430F1000030F200953114258A31220047
:101620000C126430F1000030F200953114258A313B
:1016300022000C166430F1000030F20095311425C0
:101640008A3122000C126430F1000030F200953132
:101650001425F030F500750821008C057608080087
:101660002000280827042604250403196A2BFB01FF
:10167000FB0AA81B472B0130A535A60DA70DA80D09
:10168000890B3C2B0130FA007A08FB07392B28081C
:101690002C02031D552B27082B02031D552B260852
:1016A0002A02031D552B25082902031C5F2B250840
:1016B000A9022608AA3B2708AB3B2808AC3B01300F
:1016C000A836A70CA60CA50C890B602B0130FB02D9
:1016D000031D472B2C08A8002B08A7002A08A600EA
:1016E0002908A50008002000A5002008A300230861
:1016F000F80025089531BD258B312000A401220872
:1017000024020318080024082107A30023088600E8
:10171000870101089431BE248B318A31F0228B314C
:1017200000380319952B00008D2B01302000A300F9
:101730002308A0072008103A031DA42BA0010130A4
:10174000A3002308A507AB2B20002008203A031D87
:10175000B32BA001A5012008A3002308F800250849
:101760009531BD258B3101302000A3002308A4074B
:101770007F2B2000ED0103306D020318FB2B64006A
:1017800020006D08973146278B3120006D08953178
:10179000D3258B3120006D08883139208B31200012
:1017A0006D08953136258B3120006D089631A826BD
:1017B0008B3120006D088931AA218B3120006D0802
:1017C0009431D1248B3120006D08953148258B311F
:1017D00020006D088831A0208B3120006D089631E3
:1017E0001C268B3101302000EC006C08ED07033023
:1017F0006D02031CBF2B8B1764008A310E228B31C4
:1018000097318D278B319431A4248B31FC2B003000
:101810002000A3000030A2000030A1000030A00092
:1018200074087304720471040319512CA401A40AEE
:10183000F41B262C0130F135F20DF30DF40D890B5C
:101840001B2C0130F9007908A407182C0130A035B1
:10185000A10DA20DA30D890B272C74087802031D7E
:101860003B2C73087702031D3B2C72087602031D84
:101870003B2C71087502031C462C7108F502720896
:10188000F63B7308F73B7408F83B20140130F4363C
:10189000F30CF20CF10C890B472C0130A402031D50
:1018A000262C2308F4002208F3002108F200200867
:1018B000F1000800F701F21F642CF109F209F10AA6
:1018C0000319F20AF701F70AF41F6F2CF309F40960
:1018D000F30A0319F40A0130F5007508F706F80158
:1018E000F9017208710403199E2CF601F60AF21B25
:1018F000832C0130F135F20D890B7A2C0130F50083
:101900007508F607772C0130F835F90D890B842C12
:1019100072087402031D8E2C71087302031C952C2F
:101920007108F3027208F43B78140130F236F10CBE
:10193000890B962C0130F602031D832C77080319BE
:10194000A62CF809F909F80A0319F90A7908F2012D
:10195000F2077808F101F1070800F70022000C12E5
:10196000F708031DB52C0C13B92C7708013A03199D
:101970000C178C136430F1000030F20095311425FF
:101980008C3122000C166430F1000030F2009531E9
:1019900014258C317508F6000430F636890BCD2CF1
:1019A00076080F39963152268C316430F1000030C0
:1019B000F200953114258C3122000C126430F100B4
:1019C0000030F200953114258C3122000C16643061
:1019D000F1000030F200953114258C3175080F3973
:1019E000963152268C316430F1000030F20095318E
:1019F00014258C3122000C126430F1000030F2000A
:101A00009531142508002000A80064007C302000D7
:101A1000A0000030A100A201A20A35309731692749
:101A20008D311F307C052000A60026080D3A0319D1
:101A3000202D1F307C05A6002608013A031D052D28
:101A40003630953194258D316F302000A000003064
:101A5000A100A201A20A3B30973169278D31EE30F7
:101A60002000A0000030A100A201A20A3A30973164
:101A700069278D313B30953194258D31EE30200032
:101A8000A0000030A100A201A20A3A3097316927D4
:101A90008D3120002808A6002608F7002508A70099
:101AA0002708F8003F309631C6268D313530953104
:101AB0009425080074080319622D730872047104D8
:101AC000031D732D0030F1000030F2000030F300F0
:101AD00008000130F6007608F4070130F336F20C06
:101AE000F10C890B6E2DFE30730503198C2D692DB9
:101AF0000130F6007608F4070130F10700300318D2
:101B00000130F207003003180130F3070130F336DB
:101B1000F20CF10C890B872DFF3073050319992DF9
:101B2000782D0130F4020130F135F20DF30D890BFF
:101B3000942DF21F912D7418A32DFF30F1057F30E5
:101B4000F205FF30F3050310F40C7408F600F701FA
:101B5000F8011030F635F70DF80D890BAA2D76082F
:101B6000F1047708F2047808F304750803190800F3
:101B7000F31708002000A7002108A501A5072008E9
:101B8000A401A4072308F201F2072208F101F107DA
:101B90002508F401F4072408F301F3078A314122F0
:101BA0008D3172082000A501A5077108A401A407C2
:101BB0000130F9007908A70725082404031DC22D68
:101BC00027088600870181010130A7022308F2015E
:101BD000F2072208F101F1072108F401F4072008B7
:101BE000F301F30789314D218D317108F90079082E
:101BF0002000A6002308F201F2072208F101F107F4
:101C00002108F401F4072008F301F3078A31412287
:101C10008D3172082000A101A1077108A001A00761
:101C20000A302602031C182E0730F9007908A6078F
:101C30003030F9007908A6072608F9002708860041
:101C40008701790881000130A70221082004031DC3
:101C5000E62D0130F9007908A707080020003008B8
:101C6000B4003108B5003208B6000310350D360D4A
:101C7000B7003708BD00BD08031D472E0030B30074
:101C80000030B2000030B1000030B0000800300871
:101C9000B4003108B5003208B6001730B636B50CBE
:101CA000B40C890B4E2E3408B7003708B800B117B2
:101CB000FF30B005FF30B1050030B2053008B90083
:101CC0003108BA003208BB00BC018E30BD02BD1F16
:101CD000852E3D08803A8F3E0318772E0030B300E2
:101CE0000030B2000030B1000030B0000800013018
:101CF000BC36BB0CBA0CB90C890B782E0130B40081
:101D00003408BD0703199E2E772E18303D02031CA0
:101D10009B2E0030B3000030B2000030B100003024
:101D2000B00008000130B935BA0DBB0DBC0D890BF0
:101D3000932E0130BD02BD08031D922E38080319F1
:101D4000AC2EB909BA09BB09BC09B90A0319BA0A08
:101D50000319BB0A0319BC0A3C08B3003B08B200D4
:101D60003A08B1003908B00008002C302000CB0040
:101D70004B08D4004708F1004808F2004908F30076
:101D80000030F4000030F5000030F6008A31772290
:101D90008E310318E82E2D302000CB005408860029
:101DA000013087004B0881000130CB004B08D4077D
:101DB0004708F1004808F2004908F3009431B624BE
:101DC0008E3171082000C7007208C8007308C9006E
:101DD00020004708B0004808B1004908B2008E3121
:101DE0002E268E3120003308D3003208D20031086D
:101DF000D1003008D0005308A3005208A2005108B7
:101E0000A1005008A0008831CA208E31200020088F
:101E1000AA002108AB002208AC004708AD00480822
:101E2000AE004908AF00963103268E3120002A0803
:101E3000C7002B08C8002C08C9004708A3004808A1
:101E4000A4004908A5002430A0007430A100493046
:101E5000A200873110278E3120002008B000210811
:101E6000B1002208B2008E312E268E3120003308B8
:101E7000CF003208CE003108CD003008CC002E3023
:101E8000CB004B08AD005308B1005208B000510818
:101E9000AF005008AE004F08B5004E08B4004D0822
:101EA000B3004C08B20054088231B9222C3008002B
:101EB0006F302000A0000030A100A201A20A3B3038
:101EC000973169278F31093020006F02031C080009
:101ED000640009302000E5006508FB003D309431C6
:101EE000F6248F312100631D9F2F220053083D06E9
:101EF000031DF12F3F08813A031DF12F3E082000FA
:101F0000E50065082200D200D101D10A95316E2585
:101F10008F312100E314E7010430803140208F31FC
:101F2000D030F1000730F2009531EA258F310030D2
:101F3000803140208F3194319E248F31F12F220047
:101F400053083D06031DF12F52083E06031DF12FD5
:101F5000BF08031DF12F40082000E5006508E600DA
:101F6000220041082000E5006508E7002200420841
:101F70002000E5006508E80066082200A3002000B4
:101F800067082200A400200068082200A50043087A
:101F90002000E5006508E900220044082000E50073
:101FA0006508EA00220045082000E5006508EB000E
:101FB00069082200A00020006A082200A100200079
:101FC0006B082200A200973124278F31210061087D
:101FD00060040319ED2F0230EE2F013080314020D4
:101FE0008F316F302000A0000030A100A201A20AB2
:101FF0003B30973169278F31893121218F31632F10
:10292000FF3FFF3FFF3F210063159631E52608007A
:102930002100681463302000950008002100631115
:10294000E701E001E101080020000D1808008F31C7
:1029500058270800FE0012001E00FE0BAB2C0034AE
:10296000640080010131890BB12C003473087204BA
:102970007104031908008030F3060800F900790893
:10298000F8007808F50001308C31AD2408002200F1
:10299000AA01AB0121006210621500308031402095
:1029A0000800F100D62C2300950108007108003AB8
:1029B0000319D32CDB2C080022004F08C53A031D55
:1029C000E52C50085C3A0319080095318125080070
:1029D000F200F1013A3072020318F42C3030720226
:1029E000031CF42CF101F10A710C08002000A60070
:1029F0002608A0000130A1007B08A5002508A20040
:102A00003F3097316927080022002B082A04031958
:102A100008000130AA020030AB3B2B082A04031D3A
:102A200008009431C7240800F301F401720874020D
:102A3000031D1C2D71087302031808006400202D6B
:102A40000130F3070030F43D162D0E341F341134DD
:102A500011341134113411341F34003403340F3461
:102A60001E34273450348134CB34C234F100422D2B
:102A70002100E9012000EE012100ED01EC01EA0155
:102A8000EB0108007108013A0319382D472D0800A1
:102A90002000A4004E2D8A31B22208002000240814
:102AA000003A03195A2D013A03195A2D033A031912
:102AB0004B2D5A2D08002930F8008830F90078088D
:102AC000F1007908F2004F30FA007A08F30005307F
:102AD000FB007B08F4009731D92708002930F80063
:102AE0008830F9007808F1007908F2004F30FA00D8
:102AF0007A08F3000530FB007B08F400863151268C
:102B00000800C5302000E50065082200CF005C30D9
:102B10002000E50065082200D000D101D201D301D8
:102B200095316E2501000800F80022008C1278080B
:102B30003F398038F7007708F9007930F10000302C
:102B4000F200F301F30A96316E2622008C1608007B
:102B50002200D108031D08002100621CB22D94310F
:102B6000C72408006214E214E8302200AA000330EF
:102B7000AB000330803140200800FA007808F900EB
:102B80007908FB007A08013A031DCA2D4030F9008C
:102B90007908FB077B088038F9007908F5000030D8
:102BA0008C31AD240800F200E42D0730F1007108EB
:102BB00021008D040E16F830F100710823008D05F8
:102BC000073024008D0008007208003A0319D52D43
:102BD000E92D0800F501F60172087602031DF22DB9
:102BE000710875020318080064000330F400973080
:102BF000F300F30BF92DF40BF92DFE2D0130F50741
:102C00000030F63DEC2D80302000AC062D08A000F1
:102C10002E08A1002F08A2002A08A3002B08A40058
:102C20002C08A5008431952420002008AA00210842
:102C3000AB002208AC0008002000E6002D2E013079
:102C4000980008002200AA01AB012100E2019531A1
:102C50005B2596319431DC24080020006608003A98
:102C600003191F2E013A0319222E362E08002200C6
:102C70005108031908002100610860040319482E57
:102C80000130803140202100E001E10122000800F4
:102C9000023080314020F4302100E0000130E100BA
:102CA00022000800F200F3017218F315F2187315F0
:102CB0007219F314F21973140F30F1007108F3054F
:102CC0007308F100710822008C04F030F1007108E3
:102CD000F3047308F10071088C050800F60173080D
:102CE000760203180800200091117608F400F5011F
:102CF0007408710786007508723D8700010824007A
:102D0000910020009119862E0000812E0130F400E0
:102D10007408F6076F2EF501F601711C932E7308E7
:102D2000F5077408F63D0130F335F40D890B942E48
:102D30000130F236F10C890B992E72087104031DD3
:102D40008D2E7608F201F2077508F101F1070800EF
:102D5000F200BA2E21000E16D730F10071088E0550
:102D600024009512910101309500960140309400A5
:102D7000951608007208003A0319AA2E013A0319A1
:102D8000C52E033A0319C52EC52E0800FA002200ED
:102D90008C127A083F394038F9007908FB007B3003
:102DA000F1000030F200F301F30A96316E269631FD
:102DB0007708F1000130F2007808F9007908F30093
:102DC00096316E2622008C1608002200C601530898
:102DD0002000A90029082200C700C801C80AC901AB
:102DE000CA01CB01CC01CD01CE0109302000A900E0
:102DF0002908A50046308D3103250A302000A9009E
:102E000029082100E7000800200016081706E50041
:102E100065082200D200D10195316E259731053029
:102E2000803140209731D030F1000730F2009531E9
:102E3000EA25973100308031402097319431C72402
:102E4000973194319E240800220052082000A900E6
:102E500029082200C60053082000A90029082200E2
:102E6000C70080302000A90029082200C800C9013D
:102E7000CA01CB01CC01CD01CE0109302000A9004F
:102E80002908A50046308D3103250800F200602F87
:102E900006302100950071309900093097006330A9
:102EA000200095008B16FB30F10071088B05910115
:102EB000920121009101920108002100E80108001F
:102EC0007208003A0319482F013A03195D2F682F41
:102ED00008002000A30022008C12200023083F39A4
:102EE000C038FA007A08A4002430F1000030F20063
:102EF000F301F30A96316E26973120002108F20182
:102F0000F2072008F101F1072208FA007A08F3001D
:102F10009731B32722008C1608002100ED01200014
:102F20000D19942F21006D1421006D080139F10055
:102F300020006E08013971060319A72F6E102100B9
:102F40006D1CA42F20006E142100E60169142000DE
:102F50006E1CAD2F2100E91408002200A801A90170
:102F60002100E9100800F90173087902031808002C
:102F700020009111FF302400910020009119C22FF0
:102F80000000BD2F24001108F4007908F500F601B7
:102F900075087107F7007608723DF800770886001B
:102FA00078088700740881000130F4007408F9077C
:102FB000B42F23001513F7017408770203180800D3
:102FC000640077087107F50072080318720AF600AA
:102FD0007508230091007608920015141518EE2F3D
:102FE0001308F50077087307F600760886000130AD
:102FF0008700750881000130F5007508F707DC2FA0
:020000040001F9
:080000000700090007000200DF
:04000E001CEFFFD70D
:00000001FF
