:020000040000FA
:1000000080311428FF3FFF3F803120007F08F0003F
:100010000B1D0D280B1197311627270016191611E5
:1000200070082000FF00090080311628FC016930AB
:100030008400003085000730883140208031A030B6
:100040008400003085002F308831402080313830E6
:10005000840097308500E330860000308700083048
:10006000973122278031363084008B308500203054
:100070008600013087002F309731222720008C31F5
:100080004B2C20004C084B044A04031D4E28003022
:10009000CA000030CB000030CC0008004C087F398B
:1000A000CF00D001CF35D00D4F08CD075008CE3D41
:1000B0004B0D4B0D0139CF00D0014F08CD07500833
:1000C000CE3DCE1F702822302100A9000030AA00AA
:1000D00000302000CA000030CB000030CC00080007
:1000E0004E08803AFF0081307F02031D79280030DE
:1000F0004D02031CB12822302100A9000030AA00C3
:1001000020004A08F1004B08F2004C08F3000030D0
:10011000F4000030F5000030F6008B31D32380313D
:100120000318A928FF302000D1007F30D2007F3093
:10013000D3005108F1005208F2005308F300973140
:10014000282771082000CA007208CB007308CC0071
:100150000800FF302000CA007F30CB007F30CC0089
:10016000080020004E08D0004D08CF00500DD00CE4
:10017000CF0C4C084F0680394F06CC004D08013992
:10018000CF00CF0CCF0C4B084F067F394F06CB006A
:100190000800F601F701720871040319F828F80144
:1001A000F80AF21BDD280130F135F20D890BD42855
:1001B0000130F5007508F807D1280130F635F70D44
:1001C000890BDE2872087402031DE8287108730287
:1001D000031CEF287108F3027208F43B7614013017
:1001E000F236F10C890BF0280130F802031DDD28EE
:1001F0007708F201F2077608F101F1070800FF3FE6
:100200008131820702298331192B8631A52E002BDB
:1002100022008D1631302000D4004130D500C1308D
:10022000D600833119238131200054082100D200E7
:10023000200055082100D300200056082100D400DA
:10024000E0302000A300AB30A4004630A500210020
:1002500052082000A600210053082000A70021001A
:1002600054082000A8008531F125813120002308A1
:100270002100A000200024082100A1002000250862
:100280002100A200DB01DC01E20103309E002D30E1
:100290009D00AD01AD0A0C2B62080A3A031DD3295B
:1002A0000A30F1000030F2005C08F401F4075B084A
:1002B000F301F3078031C920813171082000E1008A
:1002C00061082100AE0000302000C0008030C10075
:1002D0004430C2001230A3008330A4003F30A50098
:1002E00021002E082000E100E201E135E20DE135B8
:1002F000E20D6108F9006208FA008931EB218131D1
:1003000079082000A6007A08A7007B08A80085319C
:10031000F125813120002308C3002408C4002508EA
:10032000C500873157278131200040082100D500C2
:10033000200041082100D600200042082100D700FB
:1003400000302000A3003030A4004130A50021007F
:1003500055082000A600210056082000A700210013
:1003600057082000A8008531F1258131200023089D
:100370002100A300200024082100A400200025085B
:100380002100A500DD01DE01E20122008D120E1721
:1003900021009E0125309D0002302000E10061080F
:1003A0002100AD000C2B1C082000E100E2016108D7
:1003B0002100DB07200062082100DC3DF92A6208E9
:1003C0000A3A031DEE2A0A30F1000030F2005E08FE
:1003D000F401F4075D08F301F3078031C92081318E
:1003E00071082000E10061082100B300230820000B
:1003F000C300210024082000C4002100250820009B
:10040000C5000030C0008030C1004430C2008731D8
:100410005727813120004008A3004108A40042086A
:10042000A500210033082000E100E201E135E20DE2
:10043000E135E20D6108F9006208FA008931EB212B
:10044000813179082000A6007A08A7007B08A8005F
:100450008531F1258131200023082100DF002000B3
:1004600024082100E000200025082100E1002308E5
:100470002000B300210024082000B400210025083A
:100480002000B50021005F08F1006008F20061085B
:10049000F30097312827813171082000B6007208D7
:1004A000B7007308B80084313D248131200033083F
:1004B000C0003408C1003508C2004030A3001C3021
:1004C000A4004630A50021005F082000A6002100FE
:1004D00060082000A700210061082000A8008531E5
:1004E000F125813120002308C3002408C400250819
:1004F000C500873157278131200040082100CF00F7
:10050000200041082100D000200042082100D10035
:1005100020082000C000210021082000C100210087
:1005200022082000C20021004F082000C300210043
:1005300050082000C400210051082000C500873168
:100540005727813120004008D0004108D1004208DF
:10055000D2008631A5268131200050082100D80024
:10056000200051082100D900200052082100DA00A3
:1005700093302000B3008830B400C330B5002100B0
:1005800058082000C000210059082000C1002100A7
:100590005A082000C2000030C3006130C40045305A
:1005A000C50087315727813120004008B600410837
:1005B000B7004208B80084313D24200033082100F0
:1005C000A600200034082100A700200035082100E3
:1005D000A80022000E132100AD0108001C08200015
:1005E000E100E20161082100DD072000620821002E
:1005F000DE3D01302000E10061082100E2070C2B04
:1006000021002D08003A03190829013A03194C2941
:10061000033A0319DF290C2B06302000E100E10B1F
:100620000F2B000021009D1421009D1C002B640055
:10063000142B2000560855045404031D262B0030AB
:10064000D4008030D5003F30D60008007230F10071
:100650003130F2004430F3005408F4005508F5003E
:100660005608F6008B31D32383310318442B2230F4
:100670002100A9000030AA00FF302000D4007F3004
:10068000D5007F30D600080020005408F10055083E
:10069000F2005608F3004930F4003A30F500C43057
:1006A000F6008B31D32383310318632B22302100D2
:1006B000A9000030AA0000302000D4000030D5008E
:1006C0000030D600080020005408F1005508F20060
:1006D0005608F3000030F4000030F5000030F6005A
:1006E0008B31D32383310030031C01302000D7002D
:1006F0005708E000600803198D2B5408F1005508D5
:10070000F2005608F3009731282783317108200042
:10071000D4007208D5007308D600AA30A300B83000
:10072000A4003F30A5005408A6005508A7005608AD
:10073000A8008531F125833120002308D400240846
:10074000D5002508D6005408C0005508C100560839
:10075000C2008E31F426833120004008D8004108C1
:10076000D9004208DA005808F1005908F2005A0886
:10077000F3008F317927833172082000DF01DF0712
:100780007108DE01DE075F08FA01FA075E08F90169
:10079000F9078931EB21833179082000C0007A08FC
:1007A000C1007B08C2005408C3005508C4005608A5
:1007B000C5008831CD20833120004008D400410895
:1007C000D5004208D6005408C0005508C10056089C
:1007D000C2000130D7005708C3000930C400003000
:1007E000C5008D314B25833120004008CA004108E7
:1007F000CB004208CC005F08CE01CE075E08CD01D9
:10080000CD0780314120833120004A08D4004B08B5
:10081000D5004C08D600600803190800FF30DB0043
:100820007F30DC007F30DD0056085D06031D1E2C86
:1008300055085C06031D1E2C54085B06031D272C5F
:100840000030D4000030D5000030D6000800540835
:10085000C0005508C1005608C2000030C3008030F7
:10086000C4003F30C5008731572720004008D4001E
:100870004108D5004208D600080020003308B9001E
:100880003408BA003508BB0003103A0D3B0DBC001C
:100890003C08BF003608B9003708BA003808BB006A
:1008A00003103A0D3B0DBC003C08BE003F08031985
:1008B000652C3E083F0203186C2C3F03FF3A3E07AD
:1008C000B90019303902031C6C2C3608B300370804
:1008D000B4003808B50008003E08031908003F08B6
:1008E0003E0203187B2C3E03FF3A3F07B900193044
:1008F0003902031808000630B9003908BD00B51BDD
:10090000BD17B81B3D17B417FF30B305FF30B40552
:100910000030B505B717FF30B605FF30B70500301A
:10092000B8053E083F020318B72C0130B635B70DA5
:10093000B80D890B962C0130BE023E083F06031904
:10094000B22C0130BD023D0807390319B22C952C99
:100950000130B536B40CB30C890BA92C0130B900A9
:100960003908BF073F083E060319DC2CA82C3F08B6
:100970003E020318DC2C0130B335B40DB50D890BE4
:10098000BC2C0130BF023E083F060319D82C0130B1
:10099000BD023D0807390319D82CBB2C0130B836ED
:1009A000B70CB60C890BCF2C0130B9003908BE0743
:1009B0003F083E06031DCE2CBD1FEE2CFF30B306B4
:1009C000FF30B406FF30B5060130B307003003181E
:1009D0000130B407003003180130B5073D1F002D6A
:1009E000FF30B606FF30B706FF30B8060130B60755
:1009F000003003180130B707003003180130B80782
:100A0000BD013308B6073408B73D3508B83DB81FF7
:100A10001B2DFF30B606FF30B706FF30B806013099
:100A2000B607003003180130B70700300318013053
:100A3000B807BD01BD0A3608F1003708F2003808D2
:100A4000F3003F08B9003908F4003D08BA003A083D
:100A5000F5008D31A72571082000B3007208B4009D
:100A60007308B50008008B1323001515151320001B
:100A7000E201E0307105E000FF307205E10071082D
:100A80001F39F5007508E300740862020318ED2DA4
:100A900064002000E401203064020318732D640018
:100AA000200064086007F50061080318610AF60079
:100AB00075082300910076089200151415185E2D14
:100AC00020006435203E8600870123001308C03FC4
:100AD0001408C13F0130F50075082000E4072030FC
:100AE0006402031C4F2D230015162000610823000B
:100AF0009201920720006008230091019107553070
:100B00009600AA30960095149518842D00000000D8
:100B10002030200063020318B02D64007408200008
:100B200062020318B02D62087307F500750886008D
:100B300087010108F600F7016335203E8600870132
:100B40007608C03F7708C13F0130F5007508E2071D
:100B50000130F5007508E30720306302031C8D2D7A
:100B6000E301E401203064020318E82D6408600703
:100B7000F50061080318610AF6007508230091006A
:100B80007608920020006435203E86008701403FB1
:100B900023009300413F9400200064081F3A031D86
:100BA000D42D23009512D62D23009516553096008E
:100BB000AA30960095149518DB2D00000000013036
:100BC000F50075082000E40720306402031CB62DF0
:100BD0002030E0070030E13D442D8B172300151134
:100BE000080020002308A9002408AA002508AB005B
:100BF00003102A0D2B0DAC002C08AD00AD08031D11
:100C0000082E0030A3000030A4000030A50008002A
:100C10002608A9002708AA002808AB0003102A0DFF
:100C20002B0DAC002C08B200B208031D1E2E0030A4
:100C3000A3000030A4000030A500080032087B3E6D
:100C4000A9002908AD072308A9002408AA0025083F
:100C5000AB001030AB36AA0CA90C890B2A2E290840
:100C6000AC002C08B2002608A9002708AA00280812
:100C7000AB001030AB36AA0CA90C890B3A2E290810
:100C8000AC002C08B2068030A9002908B205A417D0
:100C9000A717FF30A605FF30A7050030A8050030D4
:100CA000AE000030AF000030B0000730A9002908C6
:100CB000B100231C612E2608AE072708AF3D280887
:100CC000B03D0130A536A40CA30C890B622E013077
:100CD000A635A70DA80D890B682E0130B102031DA2
:100CE000592E0930A9002908B100231C7D2E2608A1
:100CF000AE072708AF3D2808B03D0130A536A40C4B
:100D0000A30C890B7E2E0130B036AF0CAE0C890BD4
:100D1000842E0130B102031D752E2E08F1002F081C
:100D2000F2003008F3002D08A9002908F400320869
:100D3000AA002A08F5008D31A72571082000A3001C
:100D40007208A4007308A500080020005008F100F4
:100D50005108F2005208F3000030F4000030F500B2
:100D60000030F6008B31D32386310318C42E213096
:100D70002100A9000030AA0000302000D00000307F
:100D8000D1000030D2000800200052085104500465
:100D9000031DD72E22302100A9000030AA00003008
:100DA0002000D0000030D1000030D2000800003018
:100DB000B3008030B400BF30B5000030A300003075
:100DC000A4004030A5005430D3005308F40050086C
:100DD000F1005108F2005208F3008B31982386315C
:100DE00071082000A6007208A7007308A8008531CA
:100DF000F125863120002308B6002408B700250815
:100E0000B80084313D24863120003308D0003408F6
:100E1000D1003508D200FF30D407FF30D53D50084F
:100E2000C0005108C1005208C2001F30D30053084F
:100E3000C3000830C4000030C5008D314B25863119
:100E400020004008D0004108D1004208D2005008DC
:100E5000B3005108B4005208B5007230A30031301D
:100E6000A4003F30A5005508FA01FA075408F9011B
:100E7000F9078931EB21863179082000A6007A082C
:100E8000A7007B08A8008531F125863120002308C2
:100E9000B6002408B7002508B80084313D2420009E
:100EA0003308D0003408D1003508D20008002000F3
:100EB0004308C6004408C7004508C8000310470D92
:100EC000480DC9004908CE00CE08031D6E2F003022
:100ED000C0000030C1000030C20008004008C60059
:100EE0004108C7004208C8000310470D480DC9005B
:100EF0004908CF00CF08031D842F0030C000003008
:100F0000C1000030C20008000030CB000030CC002F
:100F10000030CD0089304F07C6004608CE02430896
:100F2000C6004408C7004508C8001030C836C70CC2
:100F3000C60C890B962F4608C9004908CF00400807
:100F4000C6004108C7004208C8001030C836C70CA8
:100F5000C60C890BA62F4608C9004908CF06803069
:100F6000C6004608CF05C417FF30C305FF30C405CF
:100F70000030C505C117FF30C005FF30C105003086
:100F8000C2051830C6004608CA000130CB35CC0D6A
:100F9000CD0D890BC62F42084502031DD52F4108F0
:100FA0004402031DD52F40084302031CDE2F4008D6
:100FB000C3024108C43B4208C53B4B140130C33552
:100FC000C40DC50D890BDF2F0130CA02031DC52FCB
:100FD0004B08F1004C08F2004D08F3004E08C60023
:100FE0004608F4004F08C7004708F5008D31A725D3
:100FF00071082000C0007208C1007308C200080018
:101000000034003480343F34723431343F34FE34A1
:1010100075343E34583463343D3495341D343C3497
:10102000C534AE343A34793421343934943480348C
:1010300037349334A73435345634153434340034CB
:1010400000340034003480343F34F034FF34BE3494
:10105000E234A9343E3483347634BE34AE342B3497
:101060003E343C34C334BD34D23413343D3478344C
:10107000D334BB345C34C534003400340034FF3F17
:10108000640080010131890B4128003420006A147A
:1010900022008E13200016081706E50065082100BF
:1010A000CD009731DA2764302000E5006508EC00B8
:1010B0000800F80022008C1278083F398038F700C9
:1010C0007708F9007930F1000030F200F301F30AFB
:1010D0008931542122008C160800F2007E28173036
:1010E000F100710821008D040E16FA30F10071082C
:1010F00023008D05073024008D0008007208003A97
:1011000003196F28832808002000E6009228013088
:1011100098000800EC01EA019731C7278831973120
:101120005F27080020006608003A03198728013A63
:1011300003198A289B2808002030F7000130F800A6
:101140002E30FB007B08F90000308A312E228831D6
:10115000E330F7000030F8000830FB007B08F900AE
:101160003E308A312E220800F501F601720876021F
:10117000031DBC28710875020318080064000330C1
:10118000F4009730F300F30BC328F40BC328C828EE
:101190000130F5070030F63DB62880302000C20649
:1011A0004308B3004408B4004508B5004008B60041
:1011B0004108B7004208B80084313D2420003308BC
:1011C000C0003408C1003508C200080022008C129B
:1011D0000130F1000030F2008831B4208831220063
:1011E0008C160130F1000030F2008831B4208831D3
:1011F000023089310021883102308A31752208009D
:101200002000A20011293030883159208931053061
:10121000F1000030F2008831B420893188319C20FF
:10122000080020002208013A03191A29033A031979
:1012300003291A290800FA0022008C127A083F3983
:10124000C038F9007908FB007B30F1000030F20073
:10125000F301F30A8931542189317808F9007908BA
:10126000F10077088931CB2122008C16080020007C
:10127000EF010D1D6F146F080139F1007C08013971
:10128000710603194A297C106F1C47297C14200021
:10129000EB016E147C1C4E29EE1408002100AB01FA
:1012A000AC012000EE100800F60173087602031866
:1012B0000800200091117608F400F5017408710708
:1012C00086007508723D8700010824009100200007
:1012D00091196C29000067290130F4007408F607A1
:1012E0005529F200832921000E16D730F10071082C
:1012F0008E05240095129101013095009601403031
:101300009400951608007208003A03197329013AEF
:1013100003198E29033A03198E298E290800F80033
:10132000F9017808790203180800640022008E137E
:10133000C830F1000030F2008831B4208931220039
:101340008E17C830F1000030F2008831B4208931A6
:101350000130F7007708F9079129F800F9017808BA
:10136000790203180800640022008E130530F10092
:101370000030F2008831B420893122008E17053008
:10138000F1000030F2008831B42089310130F700DB
:101390007708F907AF29F400F50171087502031801
:1013A000080020009111FF302400910020009119C5
:1013B000DB290000D62924001108F2007508740703
:1013C000F300730886008701720881000130F20083
:1013D0007208F507CD292000A201FA1FF629F909A4
:1013E000FA09F90A0319FA0AA201A20A7908F10016
:1013F0007A08F200F3018E30A0002008F4002208E1
:10140000A1002108F5008D31A7257108F9007208A7
:10141000FA007308FB00080021004E082000A80015
:1014200028082100C1004D082000A800280821003C
:10143000C20081302000A80028082100C300C40198
:10144000C501C601C701C801C90109302000A800B3
:101450002808A200C1308C31F42408002000A0002C
:1014600022008C12200020083F394038FA007A0808
:10147000A1002130F1000030F200F301F30A8931BC
:1014800054218A317808F201F2077708F101F10757
:101490007908FA007A08F3008931542122008C1669
:1014A0000800F2006F2A21008C011F30F100710842
:1014B0008D051030F10071088E0523008C01183065
:1014C000F10071088D058E01DF30F10071082000F8
:1014D0008D057F30F10071088E058E1708007208A7
:1014E000003A0319532A742A08002000E3008C2ACA
:1014F000ED01E9012100B0010800363088315920A2
:101500008A313330883159208A313430883159203A
:101510008A3197318627080020006308003A0319B2
:10152000982A013A0319782A033A03197D2A982A3E
:10153000080023001513F701740877020318080048
:10154000640077087107F50072080318720AF60044
:101550007508230091007608920015141518AE2A1C
:101560001308F50077087307F600760886008701F0
:10157000750881000130F5007508F7079C2AF20014
:10158000DC2A06302100950073309900093097005D
:101590002700940195016330200095008B16FB30E5
:1015A000F10071088B0591019201210091019201D6
:1015B00008002100B40108007208003A0319C12A8A
:1015C000013A0319D92AE42A080020006E1CF92ADE
:1015D0000130F1007108EB0706306B02031CF92A99
:1015E0006E10EB017C1CF72A21003514F92A21002A
:1015F00037142000EE1C080001302100AB0700303A
:10160000AC3D00302C02C93003192B02031C08002A
:10161000AB01AC0136140800F2002D2B2D30210057
:101620009D0003309E008130220097001830F100A9
:10163000710823008D0408002100AD01AE01B30143
:101640000030A3000030A4000030A5000030A60048
:101650000030A7000030A80008007208003A031903
:101660000E2B013A03191C2B352B08004734463446
:101670004E340B34D33491340934083404340034F8
:10168000003406340034213463349134CA34833452
:10169000023402343B34343407343F3408341634D3
:1016A0006C3403344034913487346B34FB34563417
:1016B0001634E9342A3400341F34413400345934A8
:1016C0007F343F348134353409342100341C722B8B
:1016D000341097316B278B318A31E5228B3197316A
:1016E00095278B312100351C792B35108831462008
:1016F0008B312100361C802B3610973140278B31DF
:1017000021002F1C8A2B2F1020000D1D8A2B8E31BB
:1017100007268B312100301C912B30109731122776
:101720008B312100AF1C0800AF108831E620080083
:10173000730872047104031DAA2B740886008701C4
:101740000030C03FC13F0030F1000030F2000030F7
:10175000F300080073087F39F500F601F535F60D42
:101760007408860087017508C03F7608C13F720D76
:10177000720D0139F500F6017408860087017508BD
:101780008104413176088104740886008701823023
:1017900081074131FF30813D7F31730880393F3807
:1017A000F300F2130800F31FE92B7109F700720927
:1017B000F8007309F900F70A0319F80A0319F90A7E
:1017C00000307707F1000030783DF2008030793D3D
:1017D000F300F61FFF2B7409F7007509F80076096E
:1017E000F900F70A0319F80A0319F90A0030770714
:1017F000F4000030783DF5008030793DF60080300F
:10180000F3068030F60676087302031D080075089B
:101810007202031D08007408710208002000AB0169
:101820008E30F9007908AA00A91F232CA609A70960
:10183000A809A909A60A0319A70A0319A80A0319DE
:10184000A90AAB01AB0AFF3029050319332C01307B
:10185000A936A80CA70CA60C890B282C0130F9007E
:101860007908AA07232C2608F1002708F200280887
:10187000F3002A08F9007908F4002B08FA007A0826
:10188000F5008D31A72571082000A6007208A70079
:101890007308A80008002000E8010330680203185C
:1018A000922C6400200068088A31BF228C3120000D
:1018B000680888316D208C31200068088A315122F7
:1018C0008C31200068089731A5278C3120006808EA
:1018D000973149278C3120006808893171218C317A
:1018E00020006808893100218C3120006808973178
:1018F00054278C31200068088A3175228C312000F1
:101900006808883184208C31200068088B310C23D2
:101910008C3101302000E7006708E80703306802D7
:10192000031C512C8B1764008B3165238C3189315A
:1019300037218C3197311C278C31932C6630200055
:10194000E5006508F700F801F80A3B3089311B21F2
:101950008C31093020006602031C08006400093045
:101960002000E5006508A000B830973178278C3159
:1019700020006A1CDD2C2100B808031D9E2C3A08AB
:10198000013A031D9E2C39082000E500650821005E
:10199000CE00CC01CC0A9731DA278C318A310C2267
:1019A0008C31210030142000ED01973186278C31D5
:1019B000033089318F218C319E2C21004D0838064F
:1019C000031D9E2C4E083906031D9E2C3A08803AB2
:1019D000031D9E2C3630883159208C312000ED01BA
:1019E000E90121002F149E2C2000A4006400273060
:1019F0002000A3002308F700F801F80A35308931E8
:101A00001B218C311F3020002705A30023080D3A2D
:101A10000319112D1F302705A3002308013A031DC8
:101A2000F62C3630883159208C3125302000A30027
:101A30002308F700F801F80A3B3089311B218C316B
:101A400026302000A3002308F700F801F80A3A30F6
:101A500089311B218C313B30883159208C31263023
:101A60002000A3002308F700F801F80A3A30893172
:101A70001B218C3120002408F7000030F8002208D8
:101A8000A3002308F9003F308A312E228C313530F3
:101A900088315920080020004308840088308500E0
:101AA0000330C6004608F10044089731B6278D314F
:101AB00084070318850A003F2000C700013FC800C3
:101AC000023FC900450844040319A02D43088400BF
:101AD000883085000330C6004608F100FF30C40797
:101AE000FF30C53D44089731B6278D318407031870
:101AF000850A003F2000B300013FB400023FB5005B
:101B00004708A3004808A4004908A5004008A6000B
:101B10004108A7004208A8008531F1258D31200039
:101B20002308B6002408B7002508B80084313D24F6
:101B30008D3120003308C7003408C8003508612DF6
:101B40004708C0004808C1004908C20008007408DE
:101B50000319AF2D730872047104031DC02D0030EA
:101B6000F1000030F2000030F30008000130F60010
:101B70007608F4070130F336F20CF10C890BBB2D1B
:101B8000FE3073050319D92DB62D0130F600760805
:101B9000F4070130F107003003180130F20700307C
:101BA00003180130F3070130F336F20CF10C890B06
:101BB000D42DFF3073050319E62DC52D0130F40235
:101BC0000130F135F20DF30D890BE12DF21FDE2D01
:101BD0007418F02DFF30F1057F30F205FF30F3056A
:101BE0000310F40C7408F600F701F8011030F63514
:101BF000F70DF80D890BF72D7608F1047708F2043C
:101C00007808F304750803190800F31708009731E2
:101C100030278E3124000D08FA007A082000A20037
:101C2000043024008D0021001D08FA007A082000ED
:101C3000A60021009D0122001708FA007A08200062
:101C4000A5002200970127001508FA007A08200055
:101C5000A0000B08FA007A08A10088308B0004303D
:101C6000270095002000A70122008D1E3A2E20009B
:101C7000A701A70A21001708FA007A082000A3008C
:101C80001B30210097001508FA007A082000A400F4
:101C90000A3021009500640063002000200827001E
:101CA0009500200021088B00220824008D002000D0
:101CB000260821009D0020002508220097008D1293
:101CC000200027080319672E22008D16200020000F
:101CD0002308210097002000240821009500AF145C
:101CE000080020006A1C7A2EE9016430C000400818
:101CF000ED000800053069020318F12E21004C08A0
:101D00000319EB2E4E082000C00040082100C1003E
:101D10004D082000C00040082100C200C30100306F
:101D20002000B3000030B4004030B5002100260888
:101D30002000B600210027082000B7002100280855
:101D40002000B80084313D248E3120003308C100CA
:101D50003408C2003508C3004108C0004008210013
:101D6000C40020004208C00040082100C500200037
:101D70004308C00040082100C60023082000C4001A
:101D8000210024082000C500210025082000C600ED
:101D90004408C00040082100C70020004508C000DA
:101DA00040082100C80020004608C000400821006B
:101DB000C90009302000C0004008A200C1308C31A9
:101DC000F4248E3101302000C0004008E9070130C2
:101DD0008931AD21210064302000C0004008ED00B1
:101DE000080021002F14080020004008F1004108DD
:101DF000F2004208F3004730C3004308F4008B317F
:101E000098238E312000C81F262F4008F10041087A
:101E1000F2004208F3000030F4000030F50000301A
:101E2000F6008B31D3238E3103181E2F0030200093
:101E3000C0008030C100BF30C20008000030200068
:101E4000C0000030C1000030C2000800003048026D
:101E5000153003194702031808004008F100410833
:101E6000F2004208F3008F3179278E317408200088
:101E7000A9007308A8007208A7007108A6008C3199
:101E80000E248E3120002608C4002708C50028082B
:101E9000C6004008F1004108F2004208F30044087F
:101EA000F4004508F5004608F6008B31D3238E3147
:101EB0000318712F00302000B3008030B400BF3011
:101EC000B5004408B6004508B7004608B80084319C
:101ED0003D2420003308C0003408C1003508C2008A
:101EE000080020004408C0004508C1004608C200A0
:101EF00008007108F5007208F6007308F700031077
:101F0000760D770DF80078082000A500A508031DC0
:101F1000922F0030F4000030F3000030F200003067
:101F2000F10008007108F5007208F6007308F70068
:101F30001730F736F60CF50C890B992F7508F80059
:101F40007808A000F217FF30F105FF30F2050030ED
:101F5000F3057108A1007208A2007308A300A40190
:101F60008E30A502A51FD02F2508803A8F3E03187A
:101F7000C22F0030F4000030F3000030F2000030D7
:101F8000F10008000130A436A30CA20CA10C890BAF
:101F9000C32F0130F5007508A5070319E92FC22FDB
:101FA00018302502031CE62F0030F4000030F30047
:101FB0000030F2000030F10008000130A135A20D20
:101FC000A30DA40D890BDE2F0130A502A508031D6A
:101FD000DD2F20080319F72FA109A209A309A409DD
:101FE000A10A0319A20A0319A30A0319A40A2408BF
:101FF000F4002308F3002208F2002108F100080091
:102E2000FF3FFF3F2000EC016A100800210034142E
:102E3000633020009500080020000D1808008C3138
:102E40009E240800FE0012001E00FE0B232F0034FB
:102E5000730872047104031908008030F306080037
:102E600022008C1238308831592022008C1608003C
:102E700003340F341E34273450348134CB34C234FD
:102E80002100CC019731DA279731033089318F2126
:102E90000800F1004E2F22008E1708007108023A38
:102EA00003194B2F532F0800F100592F23009501D0
:102EB00008007108003A0319562F5E2F0800210000
:102EC0004A08C53A031D682F4B085C3A03190800ED
:102ED0009731ED27080020006D0803190800013024
:102EE000ED02ED08031D08008E3171262000080058
:102EF0002000A3002308A1002108F7002008A20059
:102F00002208F8003F3089311B2108006430F100AD
:102F10000030F2008831B420973181310721973198
:102F20002000E9018E317126080020006C08031989
:102F300008000130EC02EC08031D08006A102200B2
:102F40008E1721002F1420000800F100B02F200060
:102F5000EE01FC01EF012100B701B501B601080047
:102F60007108013A0319A72FB52F0800F400F301E7
:102F7000741CBE2F7108F2007208F3070310F10DE4
:102F80000310F40CF408031DB82F730808003A303E
:102F9000F8008830F9007808F1007908F200CA30AA
:102FA000FA007A08F3000530FB007B08F4008A3150
:102FB000992208003A30F8008830F9007808F100CA
:102FC0007908F200CA30FA007A08F3000530FB00F5
:102FD0007B08F400853133250800C5302000E5006A
:102FE00065082100CA005C302000E500650821006A
:102FF000CB00CC01CD01CE019731DA2701000800CA
:020000040001F9
:04000E001CEFFFD70D
:0800000001000B0004000600E2
:00000001FF
